{"abi":[{"type":"constructor","inputs":[],"stateMutability":"nonpayable"},{"type":"receive","stateMutability":"payable"},{"type":"function","name":"DEPOSIT_TYPEHASH","inputs":[],"outputs":[{"name":"","type":"bytes32","internalType":"bytes32"}],"stateMutability":"view"},{"type":"function","name":"DOMAIN_TYPEHASH","inputs":[],"outputs":[{"name":"","type":"bytes32","internalType":"bytes32"}],"stateMutability":"view"},{"type":"function","name":"FdChainBase","inputs":[],"outputs":[{"name":"","type":"address","internalType":"contract IFdChainBase"}],"stateMutability":"view"},{"type":"function","name":"addShares","inputs":[{"name":"staker","type":"address","internalType":"address"},{"name":"shares","type":"uint256","internalType":"uint256"}],"outputs":[],"stateMutability":"nonpayable"},{"type":"function","name":"delegation","inputs":[],"outputs":[{"name":"","type":"address","internalType":"contract IDelegationManager"}],"stateMutability":"view"},{"type":"function","name":"depositIntotheweb3Chain","inputs":[{"name":"amount","type":"uint256","internalType":"uint256"}],"outputs":[{"name":"shares","type":"uint256","internalType":"uint256"}],"stateMutability":"payable"},{"type":"function","name":"depositIntotheweb3ChainWithSignature","inputs":[{"name":"amount","type":"uint256","internalType":"uint256"},{"name":"staker","type":"address","internalType":"address"},{"name":"expiry","type":"uint256","internalType":"uint256"},{"name":"signature","type":"bytes","internalType":"bytes"}],"outputs":[{"name":"shares","type":"uint256","internalType":"uint256"}],"stateMutability":"payable"},{"type":"function","name":"domainSeparator","inputs":[],"outputs":[{"name":"","type":"bytes32","internalType":"bytes32"}],"stateMutability":"view"},{"type":"function","name":"getDeposits","inputs":[{"name":"staker","type":"address","internalType":"address"}],"outputs":[{"name":"","type":"uint256","internalType":"uint256"}],"stateMutability":"view"},{"type":"function","name":"initialize","inputs":[{"name":"initialOwner","type":"address","internalType":"address"},{"name":"_delegation","type":"address","internalType":"contract IDelegationManager"},{"name":"_FdChainBase","type":"address","internalType":"contract IFdChainBase"}],"outputs":[],"stateMutability":"nonpayable"},{"type":"function","name":"nonces","inputs":[{"name":"","type":"address","internalType":"address"}],"outputs":[{"name":"","type":"uint256","internalType":"uint256"}],"stateMutability":"view"},{"type":"function","name":"owner","inputs":[],"outputs":[{"name":"","type":"address","internalType":"address"}],"stateMutability":"view"},{"type":"function","name":"pause","inputs":[{"name":"newPausedStatus","type":"uint256","internalType":"uint256"}],"outputs":[],"stateMutability":"nonpayable"},{"type":"function","name":"pauseAll","inputs":[],"outputs":[],"stateMutability":"nonpayable"},{"type":"function","name":"paused","inputs":[{"name":"index","type":"uint8","internalType":"uint8"}],"outputs":[{"name":"","type":"bool","internalType":"bool"}],"stateMutability":"view"},{"type":"function","name":"paused","inputs":[],"outputs":[{"name":"","type":"uint256","internalType":"uint256"}],"stateMutability":"view"},{"type":"function","name":"pauserRegistry","inputs":[],"outputs":[{"name":"","type":"address","internalType":"contract IPauserRegistry"}],"stateMutability":"view"},{"type":"function","name":"removeShares","inputs":[{"name":"staker","type":"address","internalType":"address"},{"name":"shareAmount","type":"uint256","internalType":"uint256"}],"outputs":[],"stateMutability":"nonpayable"},{"type":"function","name":"renounceOwnership","inputs":[],"outputs":[],"stateMutability":"nonpayable"},{"type":"function","name":"setPauserRegistry","inputs":[{"name":"newPauserRegistry","type":"address","internalType":"contract IPauserRegistry"}],"outputs":[],"stateMutability":"nonpayable"},{"type":"function","name":"stakerFdChainBaseShares","inputs":[{"name":"","type":"address","internalType":"address"}],"outputs":[{"name":"","type":"uint256","internalType":"uint256"}],"stateMutability":"view"},{"type":"function","name":"transferOwnership","inputs":[{"name":"newOwner","type":"address","internalType":"address"}],"outputs":[],"stateMutability":"nonpayable"},{"type":"function","name":"unpause","inputs":[{"name":"newPausedStatus","type":"uint256","internalType":"uint256"}],"outputs":[],"stateMutability":"nonpayable"},{"type":"function","name":"unpauseAll","inputs":[],"outputs":[],"stateMutability":"nonpayable"},{"type":"function","name":"withdrawSharesAsCp","inputs":[{"name":"recipient","type":"address","internalType":"address"},{"name":"shares","type":"uint256","internalType":"uint256"}],"outputs":[],"stateMutability":"nonpayable"},{"type":"function","name":"withdrawalRootPending","inputs":[{"name":"","type":"bytes32","internalType":"bytes32"}],"outputs":[{"name":"","type":"bool","internalType":"bool"}],"stateMutability":"view"},{"type":"event","name":"Deposit","inputs":[{"name":"staker","type":"address","indexed":false,"internalType":"address"},{"name":"chainbase","type":"address","indexed":false,"internalType":"contract IFdChainBase"},{"name":"shares","type":"uint256","indexed":false,"internalType":"uint256"}],"anonymous":false},{"type":"event","name":"FdChainBaseAddedToDepositWhitelist","inputs":[{"name":"chainbase","type":"address","indexed":false,"internalType":"contract IFdChainBase"}],"anonymous":false},{"type":"event","name":"FdChainBaseRemovedFromDepositWhitelist","inputs":[{"name":"chainbase","type":"address","indexed":false,"internalType":"contract IFdChainBase"}],"anonymous":false},{"type":"event","name":"FdChainBaseWhitelisterChanged","inputs":[{"name":"previousAddress","type":"address","indexed":false,"internalType":"address"},{"name":"newAddress","type":"address","indexed":false,"internalType":"address"}],"anonymous":false},{"type":"event","name":"Initialized","inputs":[{"name":"version","type":"uint64","indexed":false,"internalType":"uint64"}],"anonymous":false},{"type":"event","name":"OwnershipTransferred","inputs":[{"name":"previousOwner","type":"address","indexed":true,"internalType":"address"},{"name":"newOwner","type":"address","indexed":true,"internalType":"address"}],"anonymous":false},{"type":"event","name":"Paused","inputs":[{"name":"account","type":"address","indexed":true,"internalType":"address"},{"name":"newPausedStatus","type":"uint256","indexed":false,"internalType":"uint256"}],"anonymous":false},{"type":"event","name":"PauserRegistrySet","inputs":[{"name":"pauserRegistry","type":"address","indexed":false,"internalType":"contract IPauserRegistry"},{"name":"newPauserRegistry","type":"address","indexed":false,"internalType":"contract IPauserRegistry"}],"anonymous":false},{"type":"event","name":"Unpaused","inputs":[{"name":"account","type":"address","indexed":true,"internalType":"address"},{"name":"newPausedStatus","type":"uint256","indexed":false,"internalType":"uint256"}],"anonymous":false},{"type":"event","name":"UpdatedThirdPartyTransfersForbidden","inputs":[{"name":"chainbase","type":"address","indexed":false,"internalType":"contract IFdChainBase"},{"name":"value","type":"bool","indexed":false,"internalType":"bool"}],"anonymous":false},{"type":"error","name":"ECDSAInvalidSignature","inputs":[]},{"type":"error","name":"ECDSAInvalidSignatureLength","inputs":[{"name":"length","type":"uint256","internalType":"uint256"}]},{"type":"error","name":"ECDSAInvalidSignatureS","inputs":[{"name":"s","type":"bytes32","internalType":"bytes32"}]},{"type":"error","name":"InvalidInitialization","inputs":[]},{"type":"error","name":"NotInitializing","inputs":[]},{"type":"error","name":"OwnableInvalidOwner","inputs":[{"name":"owner","type":"address","internalType":"address"}]},{"type":"error","name":"OwnableUnauthorizedAccount","inputs":[{"name":"account","type":"address","internalType":"address"}]},{"type":"error","name":"ReentrancyGuardReentrantCall","inputs":[]}],"bytecode":{"object":"0x608080604052346100b8577ff0c57e16840df040f15088dc2f81fe391c3923bec73e23a9662efc9c229c6a009081549060ff8260401c166100a957506001600160401b036002600160401b031982821601610064575b6040516119f190816100bd8239f35b6001600160401b031990911681179091556040519081527fc7f505b2f371ae2175ee4913f4499e1f2633a7b5936321eed1cdaeb6115181d290602090a15f8080610055565b63f92ee8a960e01b8152600490fd5b5f80fdfe6080604052600436101561001a575b3615610018575f80fd5b005b5f803560e01c80630e81073c146111e757806310d67a2f146110ab578063136439dd14610f9657806320606b7014610f5c5780633066e7f514610c1157806348825e9414610f22578063595c6a6714610e6d5780635ac86ab714610e3a5780635c975abb14610e1d5780636cb3703214610de4578063715018a614610d7d5780637ecebe0014610d45578063886f119514610d1e5780638a2ddd0314610c7d5780638da5cb5b14610c4957806394f649dd14610c115780639780b96414610b7d578063a320626914610684578063beffbb89146104d6578063c0c53b8b14610351578063c3c6b3a914610322578063df5cf723146102f9578063e286a784146102d0578063f2fde38b146102a3578063f698da25146102805763fabc1cbc14610143575061000e565b3461027d5760208060031936011261027957815460405163755b36bd60e11b81526004803593926001600160a01b03918491849190829085165afa801561026e57610198928691610241575b501633146112d0565b6001541982198116036101d7577f3582d1828e26bf56bd801502bc021ac0bc8afb57c826e4986b45593c8fad389c90826001556040519283523392a280f35b6084906040519062461bcd60e51b82526004820152603860248201527f5061757361626c652e756e70617573653a20696e76616c696420617474656d7060448201527f7420746f2070617573652066756e6374696f6e616c69747900000000000000006064820152fd5b6102619150843d8611610267575b610259818361124b565b8101906112b1565b5f61018f565b503d61024f565b6040513d87823e3d90fd5b5080fd5b80fd5b503461027d578060031936011261027d57602061029b6114ad565b604051908152f35b503461027d57602036600319011261027d576102cd6102c0611221565b6102c8611734565b61143c565b80f35b503461027d578060031936011261027d576069546040516001600160a01b039091168152602090f35b503461027d578060031936011261027d576068546040516001600160a01b039091168152602090f35b503461027d57602036600319011261027d5760ff60406020926004358152606c84522054166040519015158152f35b503461027d57606036600319011261027d5761036b611221565b6024356001600160a01b0381811692918390036104d2576044359081168091036104d2577ff0c57e16840df040f15088dc2f81fe391c3923bec73e23a9662efc9c229c6a0092835460ff8160401c16159367ffffffffffffffff8216801590816104ca575b60011490816104c0575b1590816104b7575b506104a55767ffffffffffffffff198216600117865561041e9185610486575b5061040b61176c565b60665561041661181b565b6102c861181b565b6bffffffffffffffffffffffff60a01b908160685416176068556069541617606955610448575080f35b68ff00000000000000001981541690557fc7f505b2f371ae2175ee4913f4499e1f2633a7b5936321eed1cdaeb6115181d2602060405160018152a180f35b68ffffffffffffffffff1916680100000000000000011786555f610402565b60405163f92ee8a960e01b8152600490fd5b9050155f6103e2565b303b1591506103da565b8691506103d0565b8380fd5b503461027d57604036600319011261027d576104f0611221565b606854602435916001600160a01b039161050d908316331461126d565b821561060d57811690818452606b60205260408420548084116105a2578493838552606b602052604085209181810383551461054857505050f35b8390556069541690813b1561059e5782916024839260405194859384926385d1965d60e01b845260048401525af18015610593576105835750f35b61058c90611237565b61027d5780f35b6040513d84823e3d90fd5b5050fd5b60405162461bcd60e51b815260206004820152603960248201527f4664436861696e4465706f7369744d616e616765722e5f72656d6f766553686160448201527f7265733a207368617265416d6f756e7420746f6f2068696768000000000000006064820152608490fd5b60405162461bcd60e51b815260206004820152604360248201527f4664436861696e4465706f7369744d616e616765722e72656d6f76655368617260448201527f65733a207368617265416d6f756e742073686f756c64206e6f74206265207a65606482015262726f2160e81b608482015260a490fd5b50608036600319011261027d576024356001600160a01b0381169003610b795760443560649182359067ffffffffffffffff821161027d573660238301121561027d57816004013567ffffffffffffffff8111610ae157604051926106f3601f8301601f19166020018561124b565b8184523660248383010111610b7557818392602460209301838701378401015261071f600154156113a4565b610727611620565b61073434600435146113f0565b428310610af55760018060a01b03602435168152606a602052604081205492604051907f5219e07c34a7dc1a8969d67b4bad094a21fc96a2bb9b4dd9b70ae89d13ec907f602083015260018060a01b03602435166040830152600435606083015284608083015260a082015260a081528060c081011067ffffffffffffffff60c083011117610ae1578060c0600192016040526020815191012093818060a01b03602435168352606a6020520160408220556107ee6114ad565b60405193602085019161190160f01b83526022860152604285015260428452608084019084821067ffffffffffffffff831117610ae157604082905284519020936024353b156109e457505060405191630b135d3f60e11b938484526004840152604060248401528285825192836044840152845b8481106109ca5750508282018101849052602092601f01601f1916820182900301816024356001600160a01b03165afa9182156109bd578192610976575b50506001600160e01b031916036108f057505b60206108c4600435602435611662565b60017f9b779b17422d0df92223018b32b4d1fa46e071723d6817e2486d003becc55f0055604051908152f35b60a4907f747572655f454950313237313a2045524331323731207369676e6174757265206040519162461bcd60e51b835260206004840152605360248401527f454950313237315369676e61747572655574696c732e636865636b5369676e616044840152820152721d995c9a599a58d85d1a5bdb8819985a5b1959606a1b6084820152fd5b9091506020813d6020116109b5575b816109926020938361124b565b810103126102795751906001600160e01b03198216820361027d57505f806108a1565b3d9150610985565b50604051903d90823e3d90fd5b60208183018101518883018b015287945089935001610863565b60e0919493925060a08101937f19457468657265756d205369676e6564204d6573736167653a0a333200000000855260bc820152603c8552019183831067ffffffffffffffff841117610ae157610a4d93610a449360405251902061185c565b90929192611896565b6001600160a01b036024358116911603610a6757506108b4565b60a4907f747572655f454950313237313a207369676e6174757265206e6f742066726f6d6040519162461bcd60e51b835260206004840152604760248401527f454950313237315369676e61747572655574696c732e636865636b5369676e616044840152820152661039b4b3b732b960c91b6084820152fd5b634e487b7160e01b5f52604160045260245ffd5b60405162461bcd60e51b815260206004820152604d60248201527f4664436861696e4465706f7369744d616e616765722e6465706f736974496e7460448201527f6f74686577656233436861696e576974685369676e61747572653a207369676e818601526c185d1d5c9948195e1c1a5c9959609a1b608482015260a490fd5b8280fd5b5f80fd5b5034610b79576040366003190112610b7957610b97611221565b6068546001600160a01b0390610bb0908216331461126d565b60695416803b15610b795760405163f3fef3a360e01b81526001600160a01b0392909216600483015260248035908301525f908290604490829084905af18015610c0657610bfc575080f35b6100189150611237565b6040513d5f823e3d90fd5b34610b79576020366003190112610b79576001600160a01b03610c32611221565b165f52606b602052602060405f2054604051908152f35b34610b79575f366003190112610b79575f8051602061199c833981519152546040516001600160a01b039091168152602090f35b34610b79575f366003190112610b79575f5460405163755b36bd60e11b8152906001600160a01b03906020908390600490829085165afa8015610c0657610ccd925f91610cff57501633146112d0565b5f6001556040515f81527f3582d1828e26bf56bd801502bc021ac0bc8afb57c826e4986b45593c8fad389c60203392a2005b610d18915060203d60201161026757610259818361124b565b8361018f565b34610b79575f366003190112610b79575f546040516001600160a01b039091168152602090f35b34610b79576020366003190112610b79576001600160a01b03610d66611221565b165f52606a602052602060405f2054604051908152f35b34610b79575f366003190112610b7957610d95611734565b5f8051602061199c83398151915280546001600160a01b031981169091555f906001600160a01b03167f8be0079c531659141344cd1fd0a4f28419497f9722a3daafe3b4186f6b6457e08280a3005b6020366003190112610b795760206108c4600435610e04600154156113a4565b610e0c611620565b610e173482146113f0565b33611662565b34610b79575f366003190112610b79576020600154604051908152f35b34610b79576020366003190112610b795760043560ff8116809103610b795760016020911b806001541614604051908152f35b34610b79575f366003190112610b79575f5460405163237dfb4760e11b815233600482015290602090829060249082906001600160a01b03165afa8015610c0657610ebf915f91610ef3575b50611347565b5f19806001556040519081527fab40a374bc51de372200a8bc981af8c9ecdc08dfdaef0bb6e09f88f3c616ef3d60203392a2005b610f15915060203d602011610f1b575b610f0d818361124b565b81019061132f565b82610eb9565b503d610f03565b34610b79575f366003190112610b795760206040517f5219e07c34a7dc1a8969d67b4bad094a21fc96a2bb9b4dd9b70ae89d13ec907f8152f35b34610b79575f366003190112610b795760206040517f8cad95687ba82c2ce50e74f7b754645e5117c3a5bec8151c0726d5857980a8668152f35b34610b7957602080600319360112610b79576004359060248160018060a01b035f54166040519283809263237dfb4760e11b82523360048301525afa8015610c0657610fe8915f9161108e5750611347565b60015482811603611024577fab40a374bc51de372200a8bc981af8c9ecdc08dfdaef0bb6e09f88f3c616ef3d90826001556040519283523392a2005b6084906040519062461bcd60e51b82526004820152603860248201527f5061757361626c652e70617573653a20696e76616c696420617474656d70742060448201527f746f20756e70617573652066756e6374696f6e616c69747900000000000000006064820152fd5b6110a59150833d8511610f1b57610f0d818361124b565b84610eb9565b34610b7957602080600319360112610b79576004356001600160a01b038181169291839003610b79575f5491818316916040519063755b36bd60e11b82528282600481875afa8015610c065761110a925f916111ca57501633146112d0565b831561114e577f6e9fcd539896fca60e8b0f01dd580233e48a6b0f7df013b89ba7f565869acdb691846040928351928352820152a16001600160a01b031916175f55005b60a4906040519062461bcd60e51b82526004820152604960248201527f5061757361626c652e5f73657450617573657252656769737472793a206e657760448201527f50617573657252656769737472792063616e6e6f7420626520746865207a65726064820152686f206164647265737360b81b6084820152fd5b6111e19150843d861161026757610259818361124b565b8761018f565b34610b79576040366003190112610b7957610018611203611221565b61121860018060a01b0360685416331461126d565b602435906114c7565b600435906001600160a01b0382168203610b7957565b67ffffffffffffffff8111610ae157604052565b90601f8019910116810190811067ffffffffffffffff821117610ae157604052565b1561127457565b60405162461bcd60e51b815260206004820152601560248201527437b7363ca232b632b3b0ba34b7b726b0b730b3b2b960591b6044820152606490fd5b90816020910312610b7957516001600160a01b0381168103610b795790565b156112d757565b60405162461bcd60e51b815260206004820152602a60248201527f6d73672e73656e646572206973206e6f74207065726d697373696f6e6564206160448201526939903ab73830bab9b2b960b11b6064820152608490fd5b90816020910312610b7957518015158103610b795790565b1561134e57565b60405162461bcd60e51b815260206004820152602860248201527f6d73672e73656e646572206973206e6f74207065726d697373696f6e6564206160448201526739903830bab9b2b960c11b6064820152608490fd5b156113ab57565b60405162461bcd60e51b815260206004820152601c60248201527f5061757361626c653a20636f6e747261637420697320706175736564000000006044820152606490fd5b156113f757565b60405162461bcd60e51b815260206004820152601e60248201527f6465706f7369742076616c7565206e6f74206d6174636820616d6f756e7400006044820152606490fd5b6001600160a01b03908116908115611495575f8051602061199c83398151915280546001600160a01b031981168417909155167f8be0079c531659141344cd1fd0a4f28419497f9722a3daafe3b4186f6b6457e05f80a3565b604051631e4fbdf760e01b81525f6004820152602490fd5b60d25446036114bc5760665490565b6114c461176c565b90565b6001600160a01b039190821680156115b557811561154a57805f52606b60205260405f2091825493818501809511611536577f5548c837ab068cf56a2c2479df0882a4922fd203edb7517321831d95078c5f6294606094556069541660405192835260208301526040820152a1565b634e487b7160e01b5f52601160045260245ffd5b60405162461bcd60e51b815260206004820152603c60248201527f4664436861696e4465706f7369744d616e616765722e5f61646453686172657360448201527f3a207368617265732073686f756c64206e6f74206265207a65726f21000000006064820152608490fd5b60405162461bcd60e51b815260206004820152603f60248201527f4664436861696e4465706f7369744d616e616765722e5f61646453686172657360448201527f3a207374616b65722063616e6e6f74206265207a65726f2061646472657373006064820152608490fd5b7f9b779b17422d0df92223018b32b4d1fa46e071723d6817e2486d003becc55f0060028154146116505760029055565b604051633ee5aeb560e01b8152600490fd5b60018060a01b0360208160695416604460405180968193636e553f6560e01b835281600484015286881660248401525af1928315610c06575f93611700575b506116ac83836114c7565b60685416803b15610b79576040516313728ed760e11b81526001600160a01b03929092166004830152602482018390525f908290604490829084905af18015610c06576116f7575090565b6114c490611237565b9092506020813d60201161172c575b8161171c6020938361124b565b81010312610b795751915f6116a1565b3d915061170f565b5f8051602061199c833981519152546001600160a01b0316330361175457565b60405163118cdaa760e01b8152336004820152602490fd5b6040805167ffffffffffffffff9080830182811182821017610ae1576b3a3432bbb2b119a1b430b4b760a11b916020918552600c8152015281519060208201927f8cad95687ba82c2ce50e74f7b754645e5117c3a5bec8151c0726d5857980a86684527f49f80da3af2f9368eb4b1f3faefdb3fc7a993279ac6e9e42e2cebe20bdcfec0c818401524660608401523060808401526080835260a083019183831090831117610ae1575251902090565b60ff7ff0c57e16840df040f15088dc2f81fe391c3923bec73e23a9662efc9c229c6a005460401c161561184a57565b604051631afcd79f60e31b8152600490fd5b815191906041830361188c576118859250602082015190606060408401519301515f1a90611919565b9192909190565b50505f9160029190565b600481101561190557806118a8575050565b600181036118c25760405163f645eedf60e01b8152600490fd5b600281036118e35760405163fce698f760e01b815260048101839052602490fd5b6003146118ed5750565b602490604051906335e2f38360e21b82526004820152fd5b634e487b7160e01b5f52602160045260245ffd5b91907f7fffffffffffffffffffffffffffffff5d576e7357a4501ddfe92f46681b20a08411611990579160209360809260ff5f9560405194855216868401526040830152606082015282805260015afa15610c06575f516001600160a01b0381161561198657905f905f90565b505f906001905f90565b5050505f916003919056fe9016d09d72d40fdae2fd8ceac6b6234c7706214fd39c1cd1e609a0528c199300a264697066735822122014d840e6a9bbb8ac2c355c3167875cbbb71d36aba8d62750fd5dafd87fbec3ce64736f6c63430008180033","linkReferences":{}},"methodIdentifiers":{"DEPOSIT_TYPEHASH()":"48825e94","DOMAIN_TYPEHASH()":"20606b70","FdChainBase()":"e286a784","addShares(address,uint256)":"0e81073c","delegation()":"df5cf723","depositIntotheweb3Chain(uint256)":"6cb37032","depositIntotheweb3ChainWithSignature(uint256,address,uint256,bytes)":"a3206269","domainSeparator()":"f698da25","getDeposits(address)":"94f649dd","initialize(address,address,address)":"c0c53b8b","nonces(address)":"7ecebe00","owner()":"8da5cb5b","pause(uint256)":"136439dd","pauseAll()":"595c6a67","paused()":"5c975abb","paused(uint8)":"5ac86ab7","pauserRegistry()":"886f1195","removeShares(address,uint256)":"beffbb89","renounceOwnership()":"715018a6","setPauserRegistry(address)":"10d67a2f","stakerFdChainBaseShares(address)":"3066e7f5","transferOwnership(address)":"f2fde38b","unpause(uint256)":"fabc1cbc","unpauseAll()":"8a2ddd03","withdrawSharesAsCp(address,uint256)":"9780b964","withdrawalRootPending(bytes32)":"c3c6b3a9"},"id":59}