{"abi":[{"type":"constructor","inputs":[],"stateMutability":"nonpayable"},{"type":"receive","stateMutability":"payable"},{"type":"function","name":"MIN_WITHDRAWAL_AMOUNT","inputs":[],"outputs":[{"name":"","type":"uint256","internalType":"uint256"}],"stateMutability":"view"},{"type":"function","name":"SCALE","inputs":[],"outputs":[{"name":"","type":"uint256","internalType":"uint256"}],"stateMutability":"view"},{"type":"function","name":"delegationManager","inputs":[],"outputs":[{"name":"","type":"address","internalType":"contract IDelegationManager"}],"stateMutability":"view"},{"type":"function","name":"freezeAndSlashingShares","inputs":[{"name":"operator","type":"address","internalType":"address"},{"name":"slashShare","type":"uint256","internalType":"uint256"}],"outputs":[{"name":"","type":"uint256","internalType":"uint256"}],"stateMutability":"nonpayable"},{"type":"function","name":"initialize","inputs":[{"name":"initialOwner","type":"address","internalType":"address"},{"name":"_delegationAddress","type":"address","internalType":"contract IDelegationManager"},{"name":"_slasherAddress","type":"address","internalType":"address"},{"name":"_minWithdrawalAmount","type":"uint256","internalType":"uint256"},{"name":"_slashingRecipient","type":"address","internalType":"address"}],"outputs":[],"stateMutability":"nonpayable"},{"type":"function","name":"isOperatorJail","inputs":[{"name":"","type":"address","internalType":"address"}],"outputs":[{"name":"","type":"bool","internalType":"bool"}],"stateMutability":"view"},{"type":"function","name":"jail","inputs":[{"name":"operator","type":"address","internalType":"address"}],"outputs":[],"stateMutability":"nonpayable"},{"type":"function","name":"owner","inputs":[],"outputs":[{"name":"","type":"address","internalType":"address"}],"stateMutability":"view"},{"type":"function","name":"renounceOwnership","inputs":[],"outputs":[],"stateMutability":"nonpayable"},{"type":"function","name":"slasherAddress","inputs":[],"outputs":[{"name":"","type":"address","internalType":"address"}],"stateMutability":"view"},{"type":"function","name":"slashingOperatorShares","inputs":[{"name":"","type":"address","internalType":"address"}],"outputs":[{"name":"","type":"uint256","internalType":"uint256"}],"stateMutability":"view"},{"type":"function","name":"slashingRecipient","inputs":[],"outputs":[{"name":"","type":"address","internalType":"address"}],"stateMutability":"view"},{"type":"function","name":"slashingStakerShares","inputs":[{"name":"","type":"address","internalType":"address"}],"outputs":[{"name":"","type":"uint256","internalType":"uint256"}],"stateMutability":"view"},{"type":"function","name":"totalProcessedSlashingAmount","inputs":[],"outputs":[{"name":"","type":"uint256","internalType":"uint256"}],"stateMutability":"view"},{"type":"function","name":"transferOwnership","inputs":[{"name":"newOwner","type":"address","internalType":"address"}],"outputs":[],"stateMutability":"nonpayable"},{"type":"function","name":"unJail","inputs":[{"name":"operator","type":"address","internalType":"address"}],"outputs":[],"stateMutability":"nonpayable"},{"type":"function","name":"updateSlashingRecipient","inputs":[{"name":"_slashingRecipient","type":"address","internalType":"address"}],"outputs":[],"stateMutability":"nonpayable"},{"type":"function","name":"withdraw","inputs":[],"outputs":[],"stateMutability":"nonpayable"},{"type":"event","name":"Initialized","inputs":[{"name":"version","type":"uint64","indexed":false,"internalType":"uint64"}],"anonymous":false},{"type":"event","name":"IsJail","inputs":[{"name":"operator","type":"address","indexed":true,"internalType":"address"},{"name":"isJail","type":"bool","indexed":false,"internalType":"bool"}],"anonymous":false},{"type":"event","name":"OwnershipTransferred","inputs":[{"name":"previousOwner","type":"address","indexed":true,"internalType":"address"},{"name":"newOwner","type":"address","indexed":true,"internalType":"address"}],"anonymous":false},{"type":"event","name":"SlashedShareDistributed","inputs":[{"name":"operator","type":"address","indexed":true,"internalType":"address"},{"name":"staker","type":"address","indexed":true,"internalType":"address"},{"name":"amount","type":"uint256","indexed":false,"internalType":"uint256"}],"anonymous":false},{"type":"event","name":"SlashingOperatorStakingShares","inputs":[{"name":"operator","type":"address","indexed":true,"internalType":"address"},{"name":"shares","type":"uint256","indexed":false,"internalType":"uint256"}],"anonymous":false},{"type":"event","name":"Withdrawal","inputs":[{"name":"value","type":"uint256","indexed":false,"internalType":"uint256"},{"name":"to","type":"address","indexed":false,"internalType":"address"},{"name":"from","type":"address","indexed":false,"internalType":"address"}],"anonymous":false},{"type":"error","name":"InvalidInitialization","inputs":[]},{"type":"error","name":"NotInitializing","inputs":[]},{"type":"error","name":"OwnableInvalidOwner","inputs":[{"name":"owner","type":"address","internalType":"address"}]},{"type":"error","name":"OwnableUnauthorizedAccount","inputs":[{"name":"account","type":"address","internalType":"address"}]},{"type":"error","name":"ReentrancyGuardReentrantCall","inputs":[]}],"bytecode":{"object":"0x608080604052346100b8577ff0c57e16840df040f15088dc2f81fe391c3923bec73e23a9662efc9c229c6a009081549060ff8260401c166100a957506001600160401b036002600160401b031982821601610064575b604051610ea990816100bd8239f35b6001600160401b031990911681179091556040519081527fc7f505b2f371ae2175ee4913f4499e1f2633a7b5936321eed1cdaeb6115181d290602090a15f8080610055565b63f92ee8a960e01b8152600490fd5b5f80fdfe60806040818152600480361015610020575b505050361561001e575f80fd5b005b5f3560e01c92836305e05eb614610c10575082630938215814610be85782631c29b8ba14610b985782631e54636f146106ed5782632091ef641461067b5782633ccfd60b146104db578263530b97a414610349578263715018a6146102e25782638da5cb5b146102ae5782639bcbea5214610238578263b130649c14610201578263b78a8bc0146101ca578263c2cfefeb146101ae57508163d3e5792b14610192578163d53c61bf1461016b578163ea4d3c9b14610144578163eced552614610123575063f2fde38b146100f6575f8080610011565b3461011f57602036600319011261011f5761001e610112610c4a565b61011a610dda565b610d69565b5f80fd5b3461011f575f36600319011261011f5760209051670de0b6b3a76400008152f35b3461011f575f36600319011261011f5760015490516001600160a01b039091168152602090f35b3461011f575f36600319011261011f5760025490516001600160a01b039091168152602090f35b3461011f575f36600319011261011f576020905f549051908152f35b903461011f575f36600319011261011f57602091549051908152f35b503461011f57602036600319011261011f576020906001600160a01b036101ef610c4a565b165f5260078252805f20549051908152f35b503461011f57602036600319011261011f576020906001600160a01b03610226610c4a565b165f5260068252805f20549051908152f35b503461011f57602036600319011261011f577f4d76be7017f8ac06354612f8488660602d4e6761ce2547e87e83fd0c6e5ade2e6020610275610c4a565b6002546001600160a01b03919061028f9083163314610c60565b1692835f5260058252805f20600160ff198254161790555160018152a2005b503461011f575f36600319011261011f575f80516020610e548339815191525490516001600160a01b039091168152602090f35b3461011f575f36600319011261011f576102fa610dda565b5f80516020610e5483398151915280546001600160a01b031981169091555f906001600160a01b03167f8be0079c531659141344cd1fd0a4f28419497f9722a3daafe3b4186f6b6457e08280a3005b903461011f5760a036600319011261011f57610363610c4a565b6001600160a01b0390602435828116919082900361011f576044359280841680940361011f5760843590811680910361011f577ff0c57e16840df040f15088dc2f81fe391c3923bec73e23a9662efc9c229c6a009384549360ff85881c16159467ffffffffffffffff8116801590816104d3575b60011490816104c9575b1590816104c0575b506104b0578561044e9697989950600167ffffffffffffffff198316178955610491575b506bffffffffffffffffffffffff60a01b918260025416176002558160015416176001556064355f556003541617600355610446610e12565b61011a610e12565b61045457005b805468ff00000000000000001916905551600181527fc7f505b2f371ae2175ee4913f4499e1f2633a7b5936321eed1cdaeb6115181d290602090a1005b68ffffffffffffffffff1916680100000000000000011787558861040d565b875163f92ee8a960e01b81528990fd5b9050158a6103e9565b303b1591506103e1565b8791506103d7565b3461011f575f36600319011261011f57475f54116105f9575f80808047610503818754610d48565b865560018060a01b03600354167fc8a211cc64b6ed1b50595a9fcb1932b6d1e5a6e8ef15b60e5b1f988ea9086bba60608951848152836020820152338b820152a15af13d156105f4573d67ffffffffffffffff81116105e157835190610573601f8201601f191660200183610cd2565b81525f60203d92013e5b1561058457005b6020608492519162461bcd60e51b8352820152603260248201527f4665655661756c743a20536c617368696e674d616e6167657220746f2073656e6044820152711908115512081d1bc81c9958da5c1a595b9d60721b6064820152fd5b604183634e487b7160e01b5f525260245ffd5b61057d565b602060a492519162461bcd60e51b8352820152605160248201527f536c617368696e674d616e616765723a207769746864726177616c20616d6f7560448201527f6e74206d7573742062652067726561746572207468616e206d696e696d756d206064820152701dda5d1a191c985dd85b08185b5bdd5b9d607a1b6084820152fd5b503461011f57602036600319011261011f577f4d76be7017f8ac06354612f8488660602d4e6761ce2547e87e83fd0c6e5ade2e60206106b8610c4a565b6002546001600160a01b0391906106d29083163314610c60565b1692835f5260058252805f2060ff198154169055515f8152a2005b3461011f578160031936011261011f57610705610c4a565b91602480359260018060a01b03809561072382600254163314610c60565b1691825f526020956006875285855f2055816001935f838654168851938480926342e75c0d60e01b82528a868301525afa8015610b8e575f925f91610a8d575b508251815103610a0b575f8087805b6109d9575b50508015918261095957948994899489948e99948e995f9c5b6107c7575b8b8b8b8b7fbd94c6f12a4c880e561fe1405554cdec9e93ee00d35a10c1fe3146db0356ed7c848351858152a251908152f35b84518d1015610954576107da8d82610d20565b516107ea575b9b87019b87610790565b6107f48d82610d20565b51808c02908c8204148c15171561094257670de0b6b3a76400009081810290808204831490151715610930578461091e57839004049c866108358288610d20565b51165f5260078d528d61084c8c5f20918254610d48565b9055868954168761085d8389610d20565b5116813b1561011f578f6064888f8f93958e965f96879351988997889663fadbb5e160e01b885287015285015260448401525af18015610914576108eb575b50808b8e9f9b809d9e9f7f92747dbe3da3a8d39419099ab0534beca147fdc4b71399b4cdc5f8595d5f2281908d9e8c8f976108d7908e610d20565b51169451908152a39d9c9b9a9950506107e0565b67ffffffffffffffff8111610902578b528061089c565b88604187634e487b7160e01b5f52525ffd5b8c513d5f823e3d90fd5b88601287634e487b7160e01b5f52525ffd5b88601187634e487b7160e01b5f52525ffd5b87601186634e487b7160e01b5f52525ffd5b610795565b895162461bcd60e51b81528085018d9052604f818901527f536c617368696e674d616e616765722e667265657a654f70657261746f72537460448201527f616b696e675368617265733a204e6f2073686172657320746f2064697374726960648201526e6275746520736c617368536861726560881b608482015260a490fd5b90918351831015610a03576109fa82916109f38587610d20565b5190610d48565b92019080610772565b915080610777565b875162461bcd60e51b81528083018b90526051818701527f536c617368696e674d616e616765722e667265657a654f70657261746f72537460448201527f616b696e675368617265733a207374616b65727320616e6420736861726573206064820152701b195b99dd1a081b5d5cdd08195c5d585b607a1b608482015260a490fd5b9250503d805f843e610a9f8184610cd2565b820191878184031261011f57805167ffffffffffffffff9081811161011f5782019184601f8401121561011f57825192610ad884610d08565b93610ae58c519586610cd2565b8085528d8086019160051b8301019187831161011f578e01905b828210610b76575050508b81015191821161011f57019280601f8501121561011f57835193610b2d85610d08565b94610b3a8b519687610cd2565b8086528c8087019160051b83010192831161011f578c809201905b838210610b675750505050918a610763565b81518152908201908201610b55565b8151898116810361011f578152908e01908e01610aff565b87513d5f823e3d90fd5b3461011f57602036600319011261011f57610bb1610c4a565b6002546001600160a01b039190610bcb9083163314610c60565b166bffffffffffffffffffffffff60a01b60035416176003555f80f35b503461011f575f36600319011261011f5760035490516001600160a01b039091168152602090f35b90503461011f57602036600319011261011f5760209160ff906001600160a01b03610c39610c4a565b165f52600584525f20541615158152f35b600435906001600160a01b038216820361011f57565b15610c6757565b60405162461bcd60e51b815260206004820152603f60248201527f536c617368696e674d616e616765722e6f6e6c79536c61736865723a206f6e6c60448201527f7920736c61736865722063616e20646f2074686973206f7065726174696f6e006064820152608490fd5b90601f8019910116810190811067ffffffffffffffff821117610cf457604052565b634e487b7160e01b5f52604160045260245ffd5b67ffffffffffffffff8111610cf45760051b60200190565b8051821015610d345760209160051b010190565b634e487b7160e01b5f52603260045260245ffd5b91908201809211610d5557565b634e487b7160e01b5f52601160045260245ffd5b6001600160a01b03908116908115610dc2575f80516020610e5483398151915280546001600160a01b031981168417909155167f8be0079c531659141344cd1fd0a4f28419497f9722a3daafe3b4186f6b6457e05f80a3565b604051631e4fbdf760e01b81525f6004820152602490fd5b5f80516020610e54833981519152546001600160a01b03163303610dfa57565b60405163118cdaa760e01b8152336004820152602490fd5b60ff7ff0c57e16840df040f15088dc2f81fe391c3923bec73e23a9662efc9c229c6a005460401c1615610e4157565b604051631afcd79f60e31b8152600490fdfe9016d09d72d40fdae2fd8ceac6b6234c7706214fd39c1cd1e609a0528c199300a26469706673582212202734ef6d45ade69f7c309dcc887c74981a9747bbb632873aba703eaae4d6113e64736f6c63430008180033","linkReferences":{}},"methodIdentifiers":{"MIN_WITHDRAWAL_AMOUNT()":"d3e5792b","SCALE()":"eced5526","delegationManager()":"ea4d3c9b","freezeAndSlashingShares(address,uint256)":"1e54636f","initialize(address,address,address,uint256,address)":"530b97a4","isOperatorJail(address)":"05e05eb6","jail(address)":"9bcbea52","owner()":"8da5cb5b","renounceOwnership()":"715018a6","slasherAddress()":"d53c61bf","slashingOperatorShares(address)":"b130649c","slashingRecipient()":"09382158","slashingStakerShares(address)":"b78a8bc0","totalProcessedSlashingAmount()":"c2cfefeb","transferOwnership(address)":"f2fde38b","unJail(address)":"2091ef64","updateSlashingRecipient(address)":"1c29b8ba","withdraw()":"3ccfd60b"},"id":63}