{"abi":[{"type":"constructor","inputs":[{"name":"_recipient","type":"address","internalType":"address"},{"name":"_minWithdrawalAmount","type":"uint256","internalType":"uint256"}],"stateMutability":"nonpayable"},{"type":"receive","stateMutability":"payable"},{"type":"function","name":"MIN_WITHDRAWAL_AMOUNT","inputs":[],"outputs":[{"name":"","type":"uint256","internalType":"uint256"}],"stateMutability":"view"},{"type":"function","name":"RECIPIENT","inputs":[],"outputs":[{"name":"","type":"address","internalType":"address"}],"stateMutability":"view"},{"type":"function","name":"feeWallet","inputs":[],"outputs":[{"name":"","type":"address","internalType":"address"}],"stateMutability":"view"},{"type":"function","name":"minWithdrawalAmount","inputs":[],"outputs":[{"name":"amount_","type":"uint256","internalType":"uint256"}],"stateMutability":"view"},{"type":"function","name":"recipient","inputs":[],"outputs":[{"name":"recipient_","type":"address","internalType":"address"}],"stateMutability":"view"},{"type":"function","name":"totalProcessed","inputs":[],"outputs":[{"name":"","type":"uint256","internalType":"uint256"}],"stateMutability":"view"},{"type":"function","name":"version","inputs":[],"outputs":[{"name":"","type":"string","internalType":"string"}],"stateMutability":"view"},{"type":"function","name":"withdraw","inputs":[],"outputs":[],"stateMutability":"nonpayable"},{"type":"event","name":"Withdrawal","inputs":[{"name":"value","type":"uint256","indexed":false,"internalType":"uint256"},{"name":"to","type":"address","indexed":false,"internalType":"address"},{"name":"from","type":"address","indexed":false,"internalType":"address"}],"anonymous":false}],"bytecode":{"object":"0x60c03461008a57601f6104a838819003918201601f19168301916001600160401b0383118484101761008e57808492604094855283398101031261008a578051906001600160a01b038216820361008a57602001519060a05260805260405161040590816100a3823960805181818161016001526103ac015260a0518181816101ca01526103660152f35b5f80fd5b634e487b7160e01b5f52604160045260245ffdfe6040608081526004908136101561001f575b5050361561001d575f80fd5b005b5f3560e01c9182630d9019e1146103515782633ccfd60b1461014d57826354fd4d50146100af5750816366d003ac146100855781638312f1491461008a57816384411d651461008f57508063d3e5792b1461008a5763f25f4b5614610085575f80610011565b610351565b610395565b346100ab575f3660031901126100ab576020905f549051908152f35b5f80fd5b90346100ab575f3660031901126100ab578051918183019083821067ffffffffffffffff83111761013a5750815260058252602064302e302e3160d81b60208401528151928391602083528151918260208501525f5b8381106101245750505f83830185015250601f01601f19168101030190f35b8181018301518782018701528694508201610105565b604190634e487b7160e01b5f525260245ffd5b346100ab575f3660031901126100ab57477f0000000000000000000000000000000000000000000000000000000000000000116102d657475f548181018091116102c3575f8080938193825586518181527fc8a211cc64b6ed1b50595a9fcb1932b6d1e5a6e8ef15b60e5b1f988ea9086bba606060018060a01b037f00000000000000000000000000000000000000000000000000000000000000001692836020820152338b820152a15af13d156102be5767ffffffffffffffff3d8181116102ab57845191601f8201601f19908116603f011683019081118382101761029857855281525f60203d92013e5b1561024157005b6020608492519162461bcd60e51b8352820152602c60248201527f4665655661756c743a206661696c656420746f2073656e6420545720746f206660448201526b1959481c9958da5c1a595b9d60a21b6064820152fd5b604185634e487b7160e01b5f525260245ffd5b604184634e487b7160e01b5f525260245ffd5b61023a565b601183634e487b7160e01b5f525260245ffd5b602060a492519162461bcd60e51b8352820152604a60248201527f4665655661756c743a207769746864726177616c20616d6f756e74206d75737460448201527f2062652067726561746572207468616e206d696e696d756d20776974686472616064820152691dd85b08185b5bdd5b9d60b21b6084820152fd5b346100ab575f3660031901126100ab576040517f00000000000000000000000000000000000000000000000000000000000000006001600160a01b03168152602090f35b346100ab575f3660031901126100ab5760206040517f00000000000000000000000000000000000000000000000000000000000000008152f3fea264697066735822122018529860ce360bafc7655586ebc21a538d6941c0a5e7d9fa21c9490fe884139064736f6c63430008180033","linkReferences":{}},"methodIdentifiers":{"MIN_WITHDRAWAL_AMOUNT()":"d3e5792b","RECIPIENT()":"0d9019e1","feeWallet()":"f25f4b56","minWithdrawalAmount()":"8312f149","recipient()":"66d003ac","totalProcessed()":"84411d65","version()":"54fd4d50","withdraw()":"3ccfd60b"},"id":55}