{"abi":[{"type":"function","name":"pause","inputs":[{"name":"newPausedStatus","type":"uint256","internalType":"uint256"}],"outputs":[],"stateMutability":"nonpayable"},{"type":"function","name":"pauseAll","inputs":[],"outputs":[],"stateMutability":"nonpayable"},{"type":"function","name":"paused","inputs":[{"name":"index","type":"uint8","internalType":"uint8"}],"outputs":[{"name":"","type":"bool","internalType":"bool"}],"stateMutability":"view"},{"type":"function","name":"paused","inputs":[],"outputs":[{"name":"","type":"uint256","internalType":"uint256"}],"stateMutability":"view"},{"type":"function","name":"pauserRegistry","inputs":[],"outputs":[{"name":"","type":"address","internalType":"contract IPauserRegistry"}],"stateMutability":"view"},{"type":"function","name":"setPauserRegistry","inputs":[{"name":"newPauserRegistry","type":"address","internalType":"contract IPauserRegistry"}],"outputs":[],"stateMutability":"nonpayable"},{"type":"function","name":"unpause","inputs":[{"name":"newPausedStatus","type":"uint256","internalType":"uint256"}],"outputs":[],"stateMutability":"nonpayable"},{"type":"function","name":"unpauseAll","inputs":[],"outputs":[],"stateMutability":"nonpayable"},{"type":"event","name":"Paused","inputs":[{"name":"account","type":"address","indexed":true,"internalType":"address"},{"name":"newPausedStatus","type":"uint256","indexed":false,"internalType":"uint256"}],"anonymous":false},{"type":"event","name":"PauserRegistrySet","inputs":[{"name":"pauserRegistry","type":"address","indexed":false,"internalType":"contract IPauserRegistry"},{"name":"newPauserRegistry","type":"address","indexed":false,"internalType":"contract IPauserRegistry"}],"anonymous":false},{"type":"event","name":"Unpaused","inputs":[{"name":"account","type":"address","indexed":true,"internalType":"address"},{"name":"newPausedStatus","type":"uint256","indexed":false,"internalType":"uint256"}],"anonymous":false}],"bytecode":{"object":"0x608080604052346100165761072c908161001b8239f35b5f80fdfe608060409080825260049081361015610016575f80fd5b5f3560e01c90816310d67a2f1461049957508063136439dd14610381578063595c6a67146102c25780635ac86ab7146102905780635c975abb14610272578063886f11951461024b5780638a2ddd03146101ab5763fabc1cbc14610078575f80fd5b346101a7576020806003193601126101a7575f54835163755b36bd60e11b8152833593916001600160a01b0390849083908590829085165afa801561019d576100cb925f91610170575b50163314610622565b600154198319811603610109575081927f3582d1828e26bf56bd801502bc021ac0bc8afb57c826e4986b45593c8fad389c92600155519283523392a2005b60849184519162461bcd60e51b8352820152603860248201527f5061757361626c652e756e70617573653a20696e76616c696420617474656d7060448201527f7420746f2070617573652066756e6374696f6e616c69747900000000000000006064820152fd5b6101909150853d8711610196575b61018881836105cd565b810190610603565b5f6100c2565b503d61017e565b86513d5f823e3d90fd5b5f80fd5b50346101a7575f3660031901126101a7575f54825163755b36bd60e11b8152916001600160a01b03916020918491829085165afa8015610241576101f8925f916102285750163314610622565b5f600155515f81527f3582d1828e26bf56bd801502bc021ac0bc8afb57c826e4986b45593c8fad389c60203392a2005b610190915060203d6020116101965761018881836105cd565b83513d5f823e3d90fd5b82346101a7575f3660031901126101a7575f5490516001600160a01b039091168152602090f35b82346101a7575f3660031901126101a7576020906001549051908152f35b50346101a75760203660031901126101a757359060ff82168092036101a75760016020921b8060015416149051908152f35b50346101a7575f3660031901126101a7575f54825163237dfb4760e11b81523392810192909252602090829060249082906001600160a01b03165afa801561037757610315915f91610348575b50610699565b5f199081600155519081527fab40a374bc51de372200a8bc981af8c9ecdc08dfdaef0bb6e09f88f3c616ef3d60203392a2005b61036a915060203d602011610370575b61036281836105cd565b810190610681565b5f61030f565b503d610358565b82513d5f823e3d90fd5b50346101a7576020806003193601126101a7575f54835163237dfb4760e11b81523381850152833593918390829060249082906001600160a01b03165afa801561048f576103d5915f916104785750610699565b60015483811603610411575081927fab40a374bc51de372200a8bc981af8c9ecdc08dfdaef0bb6e09f88f3c616ef3d92600155519283523392a2005b60849184519162461bcd60e51b8352820152603860248201527f5061757361626c652e70617573653a20696e76616c696420617474656d70742060448201527f746f20756e70617573652066756e6374696f6e616c69747900000000000000006064820152fd5b61036a9150843d86116103705761036281836105cd565b85513d5f823e3d90fd5b919050346101a757602092836003193601126101a7576001600160a01b038235818116949193908590036101a7575f5463755b36bd60e11b8352938085169287818481875afa90811561048f57906104fb92915f916105ba5750163314610622565b841561053f5750837f6e9fcd539896fca60e8b0f01dd580233e48a6b0f7df013b89ba7f565869acdb69394958351928352820152a16001600160a01b031916175f55005b825162461bcd60e51b8152908101869052604960248201527f5061757361626c652e5f73657450617573657252656769737472793a206e657760448201527f50617573657252656769737472792063616e6e6f7420626520746865207a65726064820152686f206164647265737360b81b608482015260a490fd5b6101909150893d8b116101965761018881835b90601f8019910116810190811067ffffffffffffffff8211176105ef57604052565b634e487b7160e01b5f52604160045260245ffd5b908160209103126101a757516001600160a01b03811681036101a75790565b1561062957565b60405162461bcd60e51b815260206004820152602a60248201527f6d73672e73656e646572206973206e6f74207065726d697373696f6e6564206160448201526939903ab73830bab9b2b960b11b6064820152608490fd5b908160209103126101a7575180151581036101a75790565b156106a057565b60405162461bcd60e51b815260206004820152602860248201527f6d73672e73656e646572206973206e6f74207065726d697373696f6e6564206160448201526739903830bab9b2b960c11b6064820152608490fdfea2646970667358221220f82259ca0e55c295f5564465f39070147f4a81d54fad5da986d8aa0996e0dcaa64736f6c63430008180033","linkReferences":{}},"methodIdentifiers":{"pause(uint256)":"136439dd","pauseAll()":"595c6a67","paused()":"5c975abb","paused(uint8)":"5ac86ab7","pauserRegistry()":"886f1195","setPauserRegistry(address)":"10d67a2f","unpause(uint256)":"fabc1cbc","unpauseAll()":"8a2ddd03"},"id":50}