{"abi":[{"type":"constructor","inputs":[],"stateMutability":"nonpayable"},{"type":"receive","stateMutability":"payable"},{"type":"function","name":"DELEGATION_APPROVAL_TYPEHASH","inputs":[],"outputs":[{"name":"","type":"bytes32","internalType":"bytes32"}],"stateMutability":"view"},{"type":"function","name":"DOMAIN_TYPEHASH","inputs":[],"outputs":[{"name":"","type":"bytes32","internalType":"bytes32"}],"stateMutability":"view"},{"type":"function","name":"MAX_STAKER_OPT_OUT_WINDOW_BLOCKS","inputs":[],"outputs":[{"name":"","type":"uint256","internalType":"uint256"}],"stateMutability":"view"},{"type":"function","name":"MAX_WITHDRAWAL_DELAY_BLOCKS","inputs":[],"outputs":[{"name":"","type":"uint256","internalType":"uint256"}],"stateMutability":"view"},{"type":"function","name":"STAKER_DELEGATION_TYPEHASH","inputs":[],"outputs":[{"name":"","type":"bytes32","internalType":"bytes32"}],"stateMutability":"view"},{"type":"function","name":"calculateCurrentStakerDelegationDigestHash","inputs":[{"name":"staker","type":"address","internalType":"address"},{"name":"operator","type":"address","internalType":"address"},{"name":"expiry","type":"uint256","internalType":"uint256"}],"outputs":[{"name":"","type":"bytes32","internalType":"bytes32"}],"stateMutability":"view"},{"type":"function","name":"calculateDelegationApprovalDigestHash","inputs":[{"name":"staker","type":"address","internalType":"address"},{"name":"operator","type":"address","internalType":"address"},{"name":"_delegationApprover","type":"address","internalType":"address"},{"name":"approverSalt","type":"bytes32","internalType":"bytes32"},{"name":"expiry","type":"uint256","internalType":"uint256"}],"outputs":[{"name":"","type":"bytes32","internalType":"bytes32"}],"stateMutability":"view"},{"type":"function","name":"calculateStakerDelegationDigestHash","inputs":[{"name":"staker","type":"address","internalType":"address"},{"name":"_stakerNonce","type":"uint256","internalType":"uint256"},{"name":"operator","type":"address","internalType":"address"},{"name":"expiry","type":"uint256","internalType":"uint256"}],"outputs":[{"name":"","type":"bytes32","internalType":"bytes32"}],"stateMutability":"view"},{"type":"function","name":"calculateWithdrawalRoot","inputs":[{"name":"withdrawal","type":"tuple","internalType":"struct IDelegationManager.Withdrawal","components":[{"name":"staker","type":"address","internalType":"address"},{"name":"delegatedTo","type":"address","internalType":"address"},{"name":"withdrawer","type":"address","internalType":"address"},{"name":"nonce","type":"uint256","internalType":"uint256"},{"name":"startBlock","type":"uint32","internalType":"uint32"},{"name":"shares","type":"uint256","internalType":"uint256"}]}],"outputs":[{"name":"","type":"bytes32","internalType":"bytes32"}],"stateMutability":"pure"},{"type":"function","name":"chainBaseWithdrawalDelayBlock","inputs":[],"outputs":[{"name":"","type":"uint256","internalType":"uint256"}],"stateMutability":"view"},{"type":"function","name":"completeQueuedWithdrawal","inputs":[{"name":"withdrawal","type":"tuple","internalType":"struct IDelegationManager.Withdrawal","components":[{"name":"staker","type":"address","internalType":"address"},{"name":"delegatedTo","type":"address","internalType":"address"},{"name":"withdrawer","type":"address","internalType":"address"},{"name":"nonce","type":"uint256","internalType":"uint256"},{"name":"startBlock","type":"uint32","internalType":"uint32"},{"name":"shares","type":"uint256","internalType":"uint256"}]}],"outputs":[],"stateMutability":"nonpayable"},{"type":"function","name":"completeQueuedWithdrawals","inputs":[{"name":"withdrawals","type":"tuple[]","internalType":"struct IDelegationManager.Withdrawal[]","components":[{"name":"staker","type":"address","internalType":"address"},{"name":"delegatedTo","type":"address","internalType":"address"},{"name":"withdrawer","type":"address","internalType":"address"},{"name":"nonce","type":"uint256","internalType":"uint256"},{"name":"startBlock","type":"uint32","internalType":"uint32"},{"name":"shares","type":"uint256","internalType":"uint256"}]}],"outputs":[],"stateMutability":"nonpayable"},{"type":"function","name":"cumulativeWithdrawalsQueued","inputs":[{"name":"","type":"address","internalType":"address"}],"outputs":[{"name":"","type":"uint256","internalType":"uint256"}],"stateMutability":"view"},{"type":"function","name":"decreaseDelegatedShares","inputs":[{"name":"staker","type":"address","internalType":"address"},{"name":"shares","type":"uint256","internalType":"uint256"}],"outputs":[],"stateMutability":"nonpayable"},{"type":"function","name":"delegateTo","inputs":[{"name":"operator","type":"address","internalType":"address"},{"name":"approverSignatureAndExpiry","type":"tuple","internalType":"struct ISignatureUtils.SignatureWithExpiry","components":[{"name":"signature","type":"bytes","internalType":"bytes"},{"name":"expiry","type":"uint256","internalType":"uint256"}]},{"name":"approverSalt","type":"bytes32","internalType":"bytes32"}],"outputs":[],"stateMutability":"nonpayable"},{"type":"function","name":"delegateToBySignature","inputs":[{"name":"staker","type":"address","internalType":"address"},{"name":"operator","type":"address","internalType":"address"},{"name":"stakerSignatureAndExpiry","type":"tuple","internalType":"struct ISignatureUtils.SignatureWithExpiry","components":[{"name":"signature","type":"bytes","internalType":"bytes"},{"name":"expiry","type":"uint256","internalType":"uint256"}]},{"name":"approverSignatureAndExpiry","type":"tuple","internalType":"struct ISignatureUtils.SignatureWithExpiry","components":[{"name":"signature","type":"bytes","internalType":"bytes"},{"name":"expiry","type":"uint256","internalType":"uint256"}]},{"name":"approverSalt","type":"bytes32","internalType":"bytes32"}],"outputs":[],"stateMutability":"nonpayable"},{"type":"function","name":"delegatedTo","inputs":[{"name":"","type":"address","internalType":"address"}],"outputs":[{"name":"","type":"address","internalType":"address"}],"stateMutability":"view"},{"type":"function","name":"delegationApprover","inputs":[{"name":"operator","type":"address","internalType":"address"}],"outputs":[{"name":"","type":"address","internalType":"address"}],"stateMutability":"view"},{"type":"function","name":"delegationApproverSaltIsSpent","inputs":[{"name":"","type":"address","internalType":"address"},{"name":"","type":"bytes32","internalType":"bytes32"}],"outputs":[{"name":"","type":"bool","internalType":"bool"}],"stateMutability":"view"},{"type":"function","name":"domainSeparator","inputs":[],"outputs":[{"name":"","type":"bytes32","internalType":"bytes32"}],"stateMutability":"view"},{"type":"function","name":"earningsReceiver","inputs":[{"name":"operator","type":"address","internalType":"address"}],"outputs":[{"name":"","type":"address","internalType":"address"}],"stateMutability":"view"},{"type":"function","name":"fdChainBase","inputs":[],"outputs":[{"name":"","type":"address","internalType":"contract IFdChainBase"}],"stateMutability":"view"},{"type":"function","name":"fdChainDepositManager","inputs":[],"outputs":[{"name":"","type":"address","internalType":"contract IFdChainDepositManager"}],"stateMutability":"view"},{"type":"function","name":"getOperatorShares","inputs":[{"name":"operator","type":"address","internalType":"address"}],"outputs":[{"name":"","type":"uint256","internalType":"uint256"}],"stateMutability":"view"},{"type":"function","name":"getStakerSharesOfOperator","inputs":[{"name":"operator","type":"address","internalType":"address"}],"outputs":[{"name":"","type":"address[]","internalType":"address[]"},{"name":"","type":"uint256[]","internalType":"uint256[]"}],"stateMutability":"view"},{"type":"function","name":"increaseDelegatedShares","inputs":[{"name":"staker","type":"address","internalType":"address"},{"name":"shares","type":"uint256","internalType":"uint256"}],"outputs":[],"stateMutability":"nonpayable"},{"type":"function","name":"initialize","inputs":[{"name":"initialOwner","type":"address","internalType":"address"},{"name":"_pauserRegistry","type":"address","internalType":"contract IPauserRegistry"},{"name":"initialPausedStatus","type":"uint256","internalType":"uint256"},{"name":"_withdrawalDelayBlock","type":"uint256","internalType":"uint256"},{"name":"_fdChainDepositManager","type":"address","internalType":"contract IFdChainDepositManager"},{"name":"_fdChainBase","type":"address","internalType":"contract IFdChainBase"},{"name":"_slashingManager","type":"address","internalType":"contract ISlashingManager"}],"outputs":[],"stateMutability":"nonpayable"},{"type":"function","name":"isDelegated","inputs":[{"name":"staker","type":"address","internalType":"address"}],"outputs":[{"name":"","type":"bool","internalType":"bool"}],"stateMutability":"view"},{"type":"function","name":"isOperator","inputs":[{"name":"operator","type":"address","internalType":"address"}],"outputs":[{"name":"","type":"bool","internalType":"bool"}],"stateMutability":"view"},{"type":"function","name":"modifyOperatorDetails","inputs":[{"name":"newOperatorDetails","type":"tuple","internalType":"struct IDelegationManager.OperatorDetails","components":[{"name":"earningsReceiver","type":"address","internalType":"address"},{"name":"delegationApprover","type":"address","internalType":"address"},{"name":"stakerOptOutWindowBlocks","type":"uint32","internalType":"uint32"}]}],"outputs":[],"stateMutability":"nonpayable"},{"type":"function","name":"operatorDetails","inputs":[{"name":"operator","type":"address","internalType":"address"}],"outputs":[{"name":"","type":"tuple","internalType":"struct IDelegationManager.OperatorDetails","components":[{"name":"earningsReceiver","type":"address","internalType":"address"},{"name":"delegationApprover","type":"address","internalType":"address"},{"name":"stakerOptOutWindowBlocks","type":"uint32","internalType":"uint32"}]}],"stateMutability":"view"},{"type":"function","name":"operatorShares","inputs":[{"name":"","type":"address","internalType":"address"}],"outputs":[{"name":"","type":"uint256","internalType":"uint256"}],"stateMutability":"view"},{"type":"function","name":"owner","inputs":[],"outputs":[{"name":"","type":"address","internalType":"address"}],"stateMutability":"view"},{"type":"function","name":"pause","inputs":[{"name":"newPausedStatus","type":"uint256","internalType":"uint256"}],"outputs":[],"stateMutability":"nonpayable"},{"type":"function","name":"pauseAll","inputs":[],"outputs":[],"stateMutability":"nonpayable"},{"type":"function","name":"paused","inputs":[{"name":"index","type":"uint8","internalType":"uint8"}],"outputs":[{"name":"","type":"bool","internalType":"bool"}],"stateMutability":"view"},{"type":"function","name":"paused","inputs":[],"outputs":[{"name":"","type":"uint256","internalType":"uint256"}],"stateMutability":"view"},{"type":"function","name":"pauserRegistry","inputs":[],"outputs":[{"name":"","type":"address","internalType":"contract IPauserRegistry"}],"stateMutability":"view"},{"type":"function","name":"pendingWithdrawals","inputs":[{"name":"","type":"bytes32","internalType":"bytes32"}],"outputs":[{"name":"","type":"bool","internalType":"bool"}],"stateMutability":"view"},{"type":"function","name":"queueWithdrawals","inputs":[{"name":"queuedWithdrawalParams","type":"tuple[]","internalType":"struct IDelegationManager.QueuedWithdrawalParams[]","components":[{"name":"shares","type":"uint256","internalType":"uint256"},{"name":"withdrawer","type":"address","internalType":"address"}]}],"outputs":[{"name":"","type":"bytes32[]","internalType":"bytes32[]"}],"stateMutability":"nonpayable"},{"type":"function","name":"registerAsOperator","inputs":[{"name":"registeringOperatorDetails","type":"tuple","internalType":"struct IDelegationManager.OperatorDetails","components":[{"name":"earningsReceiver","type":"address","internalType":"address"},{"name":"delegationApprover","type":"address","internalType":"address"},{"name":"stakerOptOutWindowBlocks","type":"uint32","internalType":"uint32"}]},{"name":"nodeUrl","type":"string","internalType":"string"}],"outputs":[],"stateMutability":"nonpayable"},{"type":"function","name":"renounceOwnership","inputs":[],"outputs":[],"stateMutability":"nonpayable"},{"type":"function","name":"setFdChainBaseWithdrawalDelayBlocks","inputs":[{"name":"withdrawalDelayBlock","type":"uint256","internalType":"uint256"}],"outputs":[],"stateMutability":"nonpayable"},{"type":"function","name":"setPauserRegistry","inputs":[{"name":"newPauserRegistry","type":"address","internalType":"contract IPauserRegistry"}],"outputs":[],"stateMutability":"nonpayable"},{"type":"function","name":"slashingManager","inputs":[],"outputs":[{"name":"","type":"address","internalType":"contract ISlashingManager"}],"stateMutability":"view"},{"type":"function","name":"slashingStakingShares","inputs":[{"name":"operator","type":"address","internalType":"address"},{"name":"staker","type":"address","internalType":"address"},{"name":"shares","type":"uint256","internalType":"uint256"}],"outputs":[],"stateMutability":"nonpayable"},{"type":"function","name":"stakerDelegateSharesToOperator","inputs":[{"name":"","type":"address","internalType":"address"},{"name":"","type":"address","internalType":"address"}],"outputs":[{"name":"","type":"uint256","internalType":"uint256"}],"stateMutability":"view"},{"type":"function","name":"stakerList","inputs":[{"name":"","type":"uint256","internalType":"uint256"}],"outputs":[{"name":"","type":"address","internalType":"address"}],"stateMutability":"view"},{"type":"function","name":"stakerNonce","inputs":[{"name":"","type":"address","internalType":"address"}],"outputs":[{"name":"","type":"uint256","internalType":"uint256"}],"stateMutability":"view"},{"type":"function","name":"stakerOptOutWindowBlocks","inputs":[{"name":"operator","type":"address","internalType":"address"}],"outputs":[{"name":"","type":"uint256","internalType":"uint256"}],"stateMutability":"view"},{"type":"function","name":"transferOwnership","inputs":[{"name":"newOwner","type":"address","internalType":"address"}],"outputs":[],"stateMutability":"nonpayable"},{"type":"function","name":"undelegate","inputs":[{"name":"staker","type":"address","internalType":"address"}],"outputs":[{"name":"withdrawalRoot","type":"bytes32","internalType":"bytes32"}],"stateMutability":"nonpayable"},{"type":"function","name":"unpause","inputs":[{"name":"newPausedStatus","type":"uint256","internalType":"uint256"}],"outputs":[],"stateMutability":"nonpayable"},{"type":"function","name":"unpauseAll","inputs":[],"outputs":[],"stateMutability":"nonpayable"},{"type":"function","name":"updateOperatorNodeUrl","inputs":[{"name":"nodeUrl","type":"string","internalType":"string"}],"outputs":[],"stateMutability":"nonpayable"},{"type":"event","name":"Initialized","inputs":[{"name":"version","type":"uint64","indexed":false,"internalType":"uint64"}],"anonymous":false},{"type":"event","name":"MinWithdrawalDelayBlocksSet","inputs":[{"name":"previousValue","type":"uint256","indexed":false,"internalType":"uint256"},{"name":"newValue","type":"uint256","indexed":false,"internalType":"uint256"}],"anonymous":false},{"type":"event","name":"OperatorDetailsModified","inputs":[{"name":"operator","type":"address","indexed":true,"internalType":"address"},{"name":"newOperatorDetails","type":"tuple","indexed":false,"internalType":"struct IDelegationManager.OperatorDetails","components":[{"name":"earningsReceiver","type":"address","internalType":"address"},{"name":"delegationApprover","type":"address","internalType":"address"},{"name":"stakerOptOutWindowBlocks","type":"uint32","internalType":"uint32"}]}],"anonymous":false},{"type":"event","name":"OperatorNodeUrlUpdated","inputs":[{"name":"operator","type":"address","indexed":true,"internalType":"address"},{"name":"metadataURI","type":"string","indexed":false,"internalType":"string"}],"anonymous":false},{"type":"event","name":"OperatorRegistered","inputs":[{"name":"operator","type":"address","indexed":true,"internalType":"address"},{"name":"operatorDetails","type":"tuple","indexed":false,"internalType":"struct IDelegationManager.OperatorDetails","components":[{"name":"earningsReceiver","type":"address","internalType":"address"},{"name":"delegationApprover","type":"address","internalType":"address"},{"name":"stakerOptOutWindowBlocks","type":"uint32","internalType":"uint32"}]}],"anonymous":false},{"type":"event","name":"OperatorSharesDecreased","inputs":[{"name":"operator","type":"address","indexed":true,"internalType":"address"},{"name":"staker","type":"address","indexed":false,"internalType":"address"},{"name":"shares","type":"uint256","indexed":false,"internalType":"uint256"}],"anonymous":false},{"type":"event","name":"OperatorSharesIncreased","inputs":[{"name":"operator","type":"address","indexed":true,"internalType":"address"},{"name":"staker","type":"address","indexed":false,"internalType":"address"},{"name":"shares","type":"uint256","indexed":false,"internalType":"uint256"}],"anonymous":false},{"type":"event","name":"OwnershipTransferred","inputs":[{"name":"previousOwner","type":"address","indexed":true,"internalType":"address"},{"name":"newOwner","type":"address","indexed":true,"internalType":"address"}],"anonymous":false},{"type":"event","name":"Paused","inputs":[{"name":"account","type":"address","indexed":true,"internalType":"address"},{"name":"newPausedStatus","type":"uint256","indexed":false,"internalType":"uint256"}],"anonymous":false},{"type":"event","name":"PauserRegistrySet","inputs":[{"name":"pauserRegistry","type":"address","indexed":false,"internalType":"contract IPauserRegistry"},{"name":"newPauserRegistry","type":"address","indexed":false,"internalType":"contract IPauserRegistry"}],"anonymous":false},{"type":"event","name":"StakerDelegated","inputs":[{"name":"staker","type":"address","indexed":true,"internalType":"address"},{"name":"operator","type":"address","indexed":true,"internalType":"address"}],"anonymous":false},{"type":"event","name":"StakerForceUndelegated","inputs":[{"name":"staker","type":"address","indexed":true,"internalType":"address"},{"name":"operator","type":"address","indexed":true,"internalType":"address"}],"anonymous":false},{"type":"event","name":"StakerUndelegated","inputs":[{"name":"staker","type":"address","indexed":true,"internalType":"address"},{"name":"operator","type":"address","indexed":true,"internalType":"address"}],"anonymous":false},{"type":"event","name":"StrategyWithdrawalDelayBlocksSet","inputs":[{"name":"previousValue","type":"uint256","indexed":false,"internalType":"uint256"},{"name":"newValue","type":"uint256","indexed":false,"internalType":"uint256"}],"anonymous":false},{"type":"event","name":"Unpaused","inputs":[{"name":"account","type":"address","indexed":true,"internalType":"address"},{"name":"newPausedStatus","type":"uint256","indexed":false,"internalType":"uint256"}],"anonymous":false},{"type":"event","name":"WithdrawalCompleted","inputs":[{"name":"operator","type":"address","indexed":false,"internalType":"address"},{"name":"staker","type":"address","indexed":false,"internalType":"address"},{"name":"shares","type":"uint256","indexed":false,"internalType":"uint256"}],"anonymous":false},{"type":"event","name":"WithdrawalMigrated","inputs":[{"name":"oldWithdrawalRoot","type":"bytes32","indexed":false,"internalType":"bytes32"},{"name":"newWithdrawalRoot","type":"bytes32","indexed":false,"internalType":"bytes32"}],"anonymous":false},{"type":"event","name":"WithdrawalQueued","inputs":[{"name":"withdrawalRoot","type":"bytes32","indexed":false,"internalType":"bytes32"},{"name":"withdrawal","type":"tuple","indexed":false,"internalType":"struct IDelegationManager.Withdrawal","components":[{"name":"staker","type":"address","internalType":"address"},{"name":"delegatedTo","type":"address","internalType":"address"},{"name":"withdrawer","type":"address","internalType":"address"},{"name":"nonce","type":"uint256","internalType":"uint256"},{"name":"startBlock","type":"uint32","internalType":"uint32"},{"name":"shares","type":"uint256","internalType":"uint256"}]}],"anonymous":false},{"type":"error","name":"ECDSAInvalidSignature","inputs":[]},{"type":"error","name":"ECDSAInvalidSignatureLength","inputs":[{"name":"length","type":"uint256","internalType":"uint256"}]},{"type":"error","name":"ECDSAInvalidSignatureS","inputs":[{"name":"s","type":"bytes32","internalType":"bytes32"}]},{"type":"error","name":"InvalidInitialization","inputs":[]},{"type":"error","name":"NotInitializing","inputs":[]},{"type":"error","name":"OwnableInvalidOwner","inputs":[{"name":"owner","type":"address","internalType":"address"}]},{"type":"error","name":"OwnableUnauthorizedAccount","inputs":[{"name":"account","type":"address","internalType":"address"}]},{"type":"error","name":"ReentrancyGuardReentrantCall","inputs":[]}],"bytecode":{"object":"0x60808060405234620000bd577ff0c57e16840df040f15088dc2f81fe391c3923bec73e23a9662efc9c229c6a009081549060ff8260401c16620000ae57506001600160401b036002600160401b03198282160162000068575b604051613fdd9081620000c28239f35b6001600160401b031990911681179091556040519081527fc7f505b2f371ae2175ee4913f4499e1f2633a7b5936321eed1cdaeb6115181d290602090a15f808062000058565b63f92ee8a960e01b8152600490fd5b5f80fdfe608060409080825260049182361015610022575b5050503615610020575f80fd5b005b5f915f3560e01c90816304a4f9791461295a575080630b9f487a1461291c5780630f589e59146123b757806310d67a2f14612328578063136439dd1461221357806316928365146121d05780631bbce0911461219e5780631c8392d7146120a05780631fa67d1f1461207857806320606b701461203e578063240fe38e14611d3557806326e51dae14611cc657806329c77d4f14611c8f57806332505f0c14611af5578063348e50c614611ab5578063371e21e914610e395780633cdeb5e014611a795780633e28391d14611a3a5780633e785737146117be57806342e75c0d1461165057806343377382146116165780634fc40b61146115f9578063595c6a67146115435780635ac86ab7146115105780635c975abb146114f25780635f966f14146114b957806365da1264146114805780636be6f3d4146114585780636d70f7ae14611410578063715018a6146113a95780637ce823d6146113605780637f54807114611237578063886f1195146112105780638a2ddd03146111735780638bef87b7146110ed5780638da5cb5b146110b95780638e5ce3ad14611091578063a17884841461105a578063a7dc6b1814610feb578063b51ca3da14610fc7578063b7f06ebe14610f9a578063bb45fef214610f55578063c5e480db14610ec2578063c94b511114610e8d578063ca661c0414610e70578063cd8e9cd314610e39578063cf3c5c6214610a95578063da8be8641461067b578063eb6aa05f1461065d578063eea9064b14610618578063f16172b01461056b578063f2fde38b14610542578063f698da251461051f578063fabc1cbc146103ee5763fadbb5e10361001357346103a05761029536612a15565b6069546001600160a01b03949391929190851633036103b55782828683166103a4575b5050508360675416803b156103a057835163beffbb8960e01b81526001600160a01b03909216828801908152602081018490525f91839182908490829060400103925af1801561039657610383575b509383948360675416936069541693803b1561037f5783516325e02e5960e21b81526001600160a01b039095169285019283526020830191909152849184919082908490829060400103925af190811561037657506103635750f35b61036c90612add565b6103735780f35b80fd5b513d84823e3d90fd5b8580fd5b61038e919450612add565b5f925f610307565b83513d5f823e3d90fd5b5f80fd5b6103ad92613d5d565b5f82826102b8565b835162461bcd60e51b8152602081890152601360248201527237b7363ca9b630b9b434b733a6b0b730b3b2b960691b6044820152606490fd5b5082346103a0576020806003193601126103a0575f54835163755b36bd60e11b8152833593916001600160a01b0390849083908590829085165afa801561051557610443925f916104e8575b50163314612cb5565b600154198319811603610481575081927f3582d1828e26bf56bd801502bc021ac0bc8afb57c826e4986b45593c8fad389c92600155519283523392a2005b60849184519162461bcd60e51b8352820152603860248201527f5061757361626c652e756e70617573653a20696e76616c696420617474656d7060448201527f7420746f2070617573652066756e6374696f6e616c69747900000000000000006064820152fd5b6105089150853d871161050e575b6105008183612b26565b810190612c96565b8761043a565b503d6104f6565b86513d5f823e3d90fd5b50346103a0575f3660031901126103a05760209061053b613935565b9051908152f35b346103a05760203660031901126103a05761002061055e612992565b610566613ad2565b612f47565b5082346103a05760603660031901126103a057335f908152606e60205260409020546001600160a01b0316156105a45761002033612fb8565b602060a492519162461bcd60e51b8352820152604360248201527f44656c65676174696f6e4d616e616765722e6d6f646966794f70657261746f7260448201527f44657461696c733a2063616c6c6572206d75737420626520616e206f706572616064820152623a37b960e91b6084820152fd5b83346103a05760603660031901126103a057610632612992565b6024356001600160401b0381116103a0576100209261065391369101612b47565b604435913361324c565b50346103a0575f3660031901126103a057602090606a549051908152f35b5082346103a057602090816003193601126103a057610698612992565b6001600160a01b038082165f908152606f60205260409020541615610a20576001600160a01b038082165f908152606e6020526040902054166109b8576001600160a01b039181831690811561094f57815f52606f855283865f205416918033149586159687610946575b801561092e575b156108c6578560675416978051976394f649dd60e01b895283858a01528289602481819d5afa9889156108bc575f9961088d575b50610862575b84837ffee30966a256b71e14bc0ebfc94315e28ef4a97a7131a9e2b7a310a73af446765f80a35f838152606f835281812080546001600160a01b03191690555b606b805480831015610853579089918661079d85612a4a565b949054600395861b1c16146107b8575b505050600101610784565b5f1990808201908111610841578b6107d261080092612a4a565b905490861b1c166107e286612a4a565b90919060018060a01b038084549260031b9316831b921b1916179055565b8154801561082f576001949392918c91019261081b84612a4a565b81939154921b1b1916905555908b806107ad565b8d60318a634e487b7160e01b5f52525ffd5b8d60118a634e487b7160e01b5f52525ffd5b50505061053b8887878161375a565b84837ff0eddf07e6ea14f388b47e1e94a0f464ecbd9eed4171130e0fc0e99fb4030a8a5f80a3610744565b9098508281813d83116108b5575b6108a58183612b26565b810103126103a05751978a61073e565b503d61089b565b82513d5f823e3d90fd5b8260849189519162461bcd60e51b8352820152603d60248201527f44656c65676174696f6e4d616e616765722e756e64656c65676174653a20636160448201527f6c6c65722063616e6e6f7420756e64656c6567617465207374616b65720000006064820152fd5b50835f52606e8152856001895f20015416331461070a565b50833314610703565b855162461bcd60e51b8152908101859052603c60248201527f44656c65676174696f6e4d616e616765722e756e64656c65676174653a20636160448201527f6e6e6f7420756e64656c6567617465207a65726f2061646472657373000000006064820152608490fd5b50915162461bcd60e51b815291820152603d60248201527f44656c65676174696f6e4d616e616765722e756e64656c65676174653a206f7060448201527f657261746f72732063616e6e6f7420626520756e64656c6567617465640000006064820152608490fd5b509060a492519162461bcd60e51b8352820152604460248201527f44656c65676174696f6e4d616e616765722e756e64656c65676174653a20737460448201527f616b6572206d7573742062652064656c65676174656420746f20756e64656c656064820152636761746560e01b6084820152fd5b8382346103a0576020806003193601126103a0578235916001600160401b03918284116103a057366023850112156103a057838501359283116103a05760249060c09236602460c08702880101116103a057600195610af660015415612d89565b610afe613682565b5f5b868110610b2d5760017f9b779b17422d0df92223018b32b4d1fa46e071723d6817e2486d003becc55f0055005b85810282018660231982360301126103a0578351610b4a81612af0565b610b558783016129d4565b8152604490610b658284016129d4565b8782015260649283810192610b79846129d4565b888401526084606095818401358786015260a492838501359663ffffffff8816978881036103a0578d918d9160808a015260ff610bc160c4809a01359a8b60a0820152612ead565b92835f5260728095525f20541615610dd2576001600160a01b0397969594939291908890610bee90612e3d565b163303610d5d575f528d528b5f2060ff198154169055335f528c606f809152868d5f20541698610c224391606a54906136c4565b11610cc85750505050505060675416803b156103a05786516325e02e5960e21b815233818f019081526020810184905290915f9183919082908490829060400103925af18015610cbe57917fb00382203b46c3b6ad0a2d7af0268e334bd9406256a7c7ba8f7fc8bc47f8cde993918d969593610caf575b508751918252338983015287820152a101610b00565b610cb890612add565b8e610c99565b87513d5f823e3d90fd5b939a50939c91975094508f9a7f6b7320706572696f6420686173206e6f74207965742070617373656420666f7298507f645769746864726177616c3a207769746864726177616c44656c6179426c6f6396505f80516020613f6883398151915294506e207468697320636861696e4261736560881b9a519b62461bcd60e51b8d528c01528a0152880152860152840152820152fd5b50509550965097509990507f645769746864726177616c3a206f6e6c7920776974686472617765722063616e95505f80516020613f688339815191529350605091508d986f1031b7b6b83632ba329030b1ba34b7b760811b98519962461bcd60e51b8b528a0152880152860152840152820152fd5b505050945095509650987f645769746864726177616c3a20616374696f6e206973206e6f7420696e20717595505f80516020613f688339815191529350604391508d986265756560e81b98519962461bcd60e51b8b528a0152880152860152840152820152fd5b50346103a05760203660031901126103a0576020906001600160a01b03610e5e612992565b165f52606c8252805f20549051908152f35b50346103a0575f3660031901126103a0576020905162034bc08152f35b50346103a05760803660031901126103a05760209061053b610ead612992565b610eb56129be565b6064359160243590612ecb565b50346103a05760203660031901126103a057606090610edf612992565b905f818051610eed81612ac2565b828152826020820152015260018060a01b038092165f52606e60205280805f2092815190610f1a82612ac2565b600181865416958684520154916020810190828416825263ffffffff948591019360a01c168352845195865251166020850152511690820152f35b50346103a057806003193601126103a0576020906001600160a01b03610f79612992565b165f5260718252805f206024355f52825260ff815f20541690519015158152f35b8382346103a05760203660031901126103a057602091355f526072825260ff815f20541690519015158152f35b83346103a05760203660031901126103a05761002090610fe5613ad2565b356139de565b50346103a057806003193601126103a057611004612992565b6067546001600160a01b0392919061101f9084163314612dd5565b6001600160a01b038082165f908152606f60205260409020541661103f57005b826100209382165f52606f602052602435925f205416613d5d565b50346103a05760203660031901126103a0576020906001600160a01b0361107f612992565b165f5260738252805f20549051908152f35b50346103a0575f3660031901126103a05760695490516001600160a01b039091168152602090f35b50346103a0575f3660031901126103a0575f80516020613f488339815191525490516001600160a01b039091168152602090f35b8382346103a05760c03660031901126103a05780519161110c83612af0565b6001600160a01b03903581811681036103a057835260243581811681036103a057602084015260443590811681036103a05781830152606435606083015260843563ffffffff811681036103a0578261053b916080602095015260a43560a0820152612ead565b5082346103a0575f3660031901126103a0575f54825163755b36bd60e11b8152916001600160a01b03916020918491829085165afa8015610396576111c1925f916111f15750163314612cb5565b5f600155515f81527f3582d1828e26bf56bd801502bc021ac0bc8afb57c826e4986b45593c8fad389c60203392a2005b61120a915060203d60201161050e576105008183612b26565b8461043a565b50346103a0575f3660031901126103a0575f5490516001600160a01b039091168152602090f35b5082346103a05760a03660031901126103a057611252612992565b9061125b6129a8565b6001600160401b03916044358381116103a05761127b9036908301612b47565b926064359081116103a0576112939036908301612b47565b926020810191825142116112ed5750906112e491610020966001808060a01b03881693845f5260706020526112cf835f2054915188838c612ecb565b945f52607060205201905f2055519085613b0a565b6084359261324c565b60a490602088519162461bcd60e51b8352820152604160248201527f44656c65676174696f6e4d616e616765722e64656c6567617465546f4279536960448201527f676e61747572653a207374616b6572207369676e6174757265206578706972656064820152601960fa1b6084820152fd5b50346103a057806003193601126103a05760209061137c612992565b6113846129a8565b9060018060a01b038091165f52606d8452825f2091165f528252805f20549051908152f35b346103a0575f3660031901126103a0576113c1613ad2565b5f80516020613f4883398151915280546001600160a01b031981169091555f906001600160a01b03167f8be0079c531659141344cd1fd0a4f28419497f9722a3daafe3b4186f6b6457e08280a3005b50346103a05760203660031901126103a05760209061144f611430612992565b6001600160a01b039081165f908152606e602052604090205416151590565b90519015158152f35b50346103a0575f3660031901126103a05760685490516001600160a01b039091168152602090f35b50346103a05760203660031901126103a0576020906001600160a01b03806114a6612992565b165f52606f8352815f2054169051908152f35b50346103a05760203660031901126103a0576020906001600160a01b03806114df612992565b165f52606e8352815f2054169051908152f35b50346103a0575f3660031901126103a0576020906001549051908152f35b5082346103a05760203660031901126103a057359060ff82168092036103a05760016020921b8060015416149051908152f35b5082346103a0575f3660031901126103a0575f54825163237dfb4760e11b81523392810192909252602090829060249082906001600160a01b03165afa80156108bc57611597915f916115ca575b50612d2c565b5f199081600155519081527fab40a374bc51de372200a8bc981af8c9ecdc08dfdaef0bb6e09f88f3c616ef3d60203392a2005b6115ec915060203d6020116115f2575b6115e48183612b26565b810190612d14565b83611591565b503d6115da565b50346103a0575f3660031901126103a057602090516213c6808152f35b50346103a0575f3660031901126103a057602090517f39111bc4a4d688e1f685123d7497d4615370152a8ee4a0593e647bd06ad8bb0b8152f35b50346103a057602090816003193601126103a0579061166d612992565b90606b549061167b82612e16565b9261168885519485612b26565b82845261169483612e16565b9282850191601f198095013684376116ab82612e16565b916116b888519384612b26565b8083526116c481612e16565b83860196013687376001600160a01b039182165f5b82811061175b575050508651968796818801918852518091526060870193915f905b82821061173e5750505050848203858401525180825290820192915f5b82811061172757505050500390f35b835185528695509381019392810192600101611718565b8351811686528998509486019492860192600191909101906116fb565b80848a611783836117739d9e999a9c9d600196612a4a565b949054600395861b1c1692612e51565b52835f52606d895285875f209161179984612a4a565b9054911b1c165f528852855f20546117b18289612e51565b52019897969493986116d9565b5082346103a05760e03660031901126103a0576117d9612992565b6117e16129a8565b6001600160a01b03916044359160843584811692908390036103a05760a435918583168093036103a05760c435948686168096036103a0577ff0c57e16840df040f15088dc2f81fe391c3923bec73e23a9662efc9c229c6a009788549760ff898c1c1615986001600160401b03811680159081611a32575b6001149081611a28575b159081611a1f575b50611a0f5767ffffffffffffffff1981166001178b55896119f0575b50805f54161590816119e4575b501561196b57506118f39291816118d8926001558a519081527fab40a374bc51de372200a8bc981af8c9ecdc08dfdaef0bb6e09f88f3c616ef3d60203392a26135b0565b6118e0613935565b6066556118eb613dc7565b610566613dc7565b6118fe6064356139de565b6001600160601b0360a01b9182606754161760675581606854161760685560695416176069554660d85561192e57005b805468ff00000000000000001916905551600181527fc7f505b2f371ae2175ee4913f4499e1f2633a7b5936321eed1cdaeb6115181d290602090a1005b60a49060208b519162461bcd60e51b8352820152604760248201527f5061757361626c652e5f696e697469616c697a655061757365723a205f696e6960448201527f7469616c697a6550617573657228292063616e206f6e6c792062652063616c6c6064820152666564206f6e636560c81b6084820152fd5b9050831615158b611894565b68ffffffffffffffffff191668010000000000000001178a558b611887565b8b5163f92ee8a960e01b81528390fd5b9050158d61186b565b303b159150611863565b8b9150611859565b50346103a05760203660031901126103a05760209061144f611a5a612992565b6001600160a01b039081165f908152606f602052604090205416151590565b50346103a05760203660031901126103a0576020906001600160a01b0380611a9f612992565b165f52606e83526001825f200154169051908152f35b5082346103a05760203660031901126103a0573590606b548210156103a057611adf602092612a4a565b905491519160018060a01b039160031b1c168152f35b8382346103a0576020806003193601126103a0578235926001600160401b03918285116103a057366023860112156103a057848201359283116103a0576024916024860195602436918660061b0101116103a0579084928692600193611b5d60015415612d89565b611b6687612e16565b92611b7387519485612b26565b878452611b7f88612e16565b8486019890601f1901368a37335f52606f865260018060a01b039384895f205416925f5b838110611be557505050505050508351938285019183865251809252840194915f5b828110611bd25785870386f35b8351875295810195928101928401611bc5565b9a989a9796973387611c028a611bfc85898c612e2d565b01612e3d565b1603611c55578b90611c3e611c1c8a611bfc84898c612e2d565b611c2b8b611bfc858a8d612e2d565b88611c37858a8d612e2d565b359261375a565b611c48828c612e51565b52019a989a979697611ba3565b8a5162461bcd60e51b8152808401899052601581840152743737ba1030baba3437b934bd32b21031b0b63632b960591b6044820152606490fd5b50346103a05760203660031901126103a0576020906001600160a01b03611cb4612992565b165f5260708252805f20549051908152f35b50346103a057806003193601126103a057611cdf612992565b6067546001600160a01b03929190611cfa9084163314612dd5565b6001600160a01b038082165f908152606f602052604090205416611d1a57005b826100209382165f52606f602052602435925f2054166136d1565b5082346103a05760c03660031901126103a057611d5460015415612d89565b611d5c613682565b8151611d6781612af0565b6001600160a01b0391803583811681036103a05782526024359083821682036103a0576020918284015260443593808516948581036103a0578685015260643560608501526084359463ffffffff8616958681036103a0576080860152611dd660a435958660a0820152612ead565b90815f526072855260ff885f20541615611fdc573303611f6d575f5260728352855f2060ff198154169055335f52606f8352611e1b81875f20541695606a54906136c4565b4310611eda5760675416803b156103a05785516325e02e5960e21b81523392810192835260208301859052915f91839182908490829060400103925af18015611ed057917fb00382203b46c3b6ad0a2d7af0268e334bd9406256a7c7ba8f7fc8bc47f8cde995916060959493611ec1575b5081519384523390840152820152a160017f9b779b17422d0df92223018b32b4d1fa46e071723d6817e2486d003becc55f0055005b611eca90612add565b86611e8c565b85513d5f823e3d90fd5b5060c49185519162461bcd60e51b8352820152606f60248201525f80516020613f6883398151915260448201527f645769746864726177616c3a207769746864726177616c44656c6179426c6f6360648201527f6b7320706572696f6420686173206e6f74207965742070617373656420666f7260848201526e207468697320636861696e4261736560881b60a4820152fd5b865162461bcd60e51b8152808401859052605060248201525f80516020613f6883398151915260448201527f645769746864726177616c3a206f6e6c7920776974686472617765722063616e60648201526f1031b7b6b83632ba329030b1ba34b7b760811b608482015260a490fd5b875162461bcd60e51b8152808501869052604360248201525f80516020613f6883398151915260448201527f645769746864726177616c3a20616374696f6e206973206e6f7420696e20717560648201526265756560e81b608482015260a490fd5b50346103a0575f3660031901126103a057602090517f8cad95687ba82c2ce50e74f7b754645e5117c3a5bec8151c0726d5857980a8668152f35b50346103a0575f3660031901126103a05760675490516001600160a01b039091168152602090f35b8382346103a05760203660031901126103a05781356001600160401b0381116103a0576120d090369084016129e8565b335f908152606e602052604090205491939092916001600160a01b03161561212a57507f826d13513a58153c5878cd93af2008d3f8dfc32049e748b380b1b385645e280b916121259151918291339583612c6f565b0390a2005b602060a492519162461bcd60e51b8352820152604360248201527f44656c65676174696f6e4d616e616765722e7570646174654f70657261746f7260448201527f4e6f646555726c3a2063616c6c6572206d75737420626520616e206f706572616064820152623a37b960e91b6084820152fd5b50346103a05760209061053b6121b336612a15565b6001600160a01b0383165f90815260708752859020549092612ecb565b50346103a05760203660031901126103a0576020906001600160a01b036121f5612992565b165f52606e825263ffffffff6001825f20015460a01c169051908152f35b5082346103a0576020806003193601126103a0575f54835163237dfb4760e11b81523381850152833593918390829060249082906001600160a01b03165afa8015611ed057612268915f9161230b5750612d2c565b600154838116036122a4575081927fab40a374bc51de372200a8bc981af8c9ecdc08dfdaef0bb6e09f88f3c616ef3d92600155519283523392a2005b60849184519162461bcd60e51b8352820152603860248201527f5061757361626c652e70617573653a20696e76616c696420617474656d70742060448201527f746f20756e70617573652066756e6374696f6e616c69747900000000000000006064820152fd5b6123229150843d86116115f2576115e48183612b26565b86611591565b8382346103a05760203660031901126103a057612343612992565b5f54825163755b36bd60e11b81526001600160a01b039492939290916020918391829088165afa9182156123ae57509261238a91610020945f9161238f5750163314612cb5565b6135b0565b6123a8915060203d60201161050e576105008183612b26565b8561043a565b513d5f823e3d90fd5b5082346103a0573660031901608081126103a0576060136103a05760649182356001600160401b0381116103a0576123f290369084016129e8565b9093335f526020606e815260018060a01b039182855f2054166128a75761241833612fb8565b84519061242482612a93565b606082525f838301818152338252606f6020526040909120546001600160a01b031661283557335f908152606e60205260409020546001600160a01b0316156127b857335f52606e8452846001885f2001541691821515806127ae575b806127a7575b612618575b50505050335f52606f8152835f20336001600160601b0360a01b825416179055606b54600160401b811015612605576124ce8160016124ec9301606b55612a4a565b81546001600160a01b0360039290921b91821b19163390911b179055565b835133337fc3ee9f2e5fda98e8066a1f745b2df9285f416fe98cf2559cd21484b3d87433045f80a3818160248186606754166394f649dd60e01b8252338b8301525afa8015611ed0575f906125d6575b612548915033336136d1565b835194358281168091036103a05785526024359182168092036103a0578401526044359163ffffffff83168093036103a0578361212593827f826d13513a58153c5878cd93af2008d3f8dfc32049e748b380b1b385645e280b9601527f8e8485583a2310d41f7c82b9427d0bd49bad74bb9cff9d3402a29d8f9b28a0e260603392a251918291339583612c6f565b508181813d83116125fe575b6125ec8183612b26565b810103126103a057612548905161253c565b503d6125e2565b604186634e487b7160e01b5f525260245ffd5b8151421161275957825f5260718552875f205f8052855260ff885f20541661270b5750906127029291815f5260718552875f205f80528552875f20600160ff1982541617905551875190858201927f6d1fdcc5430bb8f0c2b78c3d153f848b370260144c36d3b8b064f06b5a04568e8452338a84015233606084015260808301525f60a083015260c082015260c081526126b181612b0b565b5190206126e86126f66126c2613935565b9289519283918883019586909160429261190160f01b8352600283015260228201520190565b03601f198101835282612b26565b51902090519033613b0a565b8680808061248c565b88761c9bdd995c94d85b1d08185b1c9958591e481cdc195b9d604a1b608492878b519362461bcd60e51b8552840152603760248401525f80516020613f888339815191526044840152820152fd5b88761c9bdd995c881cda59db985d1d5c9948195e1c1a5c9959604a1b608492878b519362461bcd60e51b8552840152603760248401525f80516020613f888339815191526044840152820152fd5b505f612487565b5082331415612481565b865162461bcd60e51b8152808901859052604c60248201527f44656c65676174696f6e4d616e616765722e5f64656c65676174653a206f706560448201527f7261746f72206973206e6f74207265676973746572656420696e207468657765818401526b3119a1b430b4b72630bcb2b960a11b608482015260a490fd5b865162461bcd60e51b8152808901859052604160248201527f44656c65676174696f6e4d616e616765722e5f64656c65676174653a2073746160448201527f6b657220697320616c7265616479206163746976656c792064656c656761746581840152601960fa1b608482015260a490fd5b7f61746f723a206f70657261746f722068617320616c7265616479207265676973869160a49387519362461bcd60e51b8552840152604560248401527f44656c65676174696f6e4d616e616765722e726567697374657241734f7065726044840152820152641d195c995960da1b6084820152fd5b50346103a05760a03660031901126103a05760209061053b61293c612992565b6129446129a8565b9061294d6129be565b6084359260643592612bcc565b346103a0575f3660031901126103a057807f6d1fdcc5430bb8f0c2b78c3d153f848b370260144c36d3b8b064f06b5a04568e60209252f35b600435906001600160a01b03821682036103a057565b602435906001600160a01b03821682036103a057565b604435906001600160a01b03821682036103a057565b35906001600160a01b03821682036103a057565b9181601f840112156103a0578235916001600160401b0383116103a057602083818601950101116103a057565b60609060031901126103a0576001600160a01b039060043582811681036103a0579160243590811681036103a0579060443590565b606b54811015612a7f57606b5f527fbd43cb8ece8cd1863bcd6082d65c5b0d25665b1ce17980f0da43c0ed545f98b401905f90565b634e487b7160e01b5f52603260045260245ffd5b604081019081106001600160401b03821117612aae57604052565b634e487b7160e01b5f52604160045260245ffd5b606081019081106001600160401b03821117612aae57604052565b6001600160401b038111612aae57604052565b60c081019081106001600160401b03821117612aae57604052565b60e081019081106001600160401b03821117612aae57604052565b90601f801991011681019081106001600160401b03821117612aae57604052565b9190916040818403126103a05760405190612b6182612a93565b81938135916001600160401b03928381116103a05781019180601f840112156103a05782356020948111612aae5760405191612ba6601f8301601f1916870184612b26565b8183528582860101116103a05784815f9282809701838601378301015284520135910152565b939192906040519360208501957f6d1fdcc5430bb8f0c2b78c3d153f848b370260144c36d3b8b064f06b5a04568e875260018060a01b039283809216604088015216606086015216608084015260a083015260c082015260c08152612c3081612b0b565b5190206126e8612c69612c41613935565b92604051928391602083019586909160429261190160f01b8352600283015260228201520190565b51902090565b90918060409360208452816020850152848401375f828201840152601f01601f1916010190565b908160209103126103a057516001600160a01b03811681036103a05790565b15612cbc57565b60405162461bcd60e51b815260206004820152602a60248201527f6d73672e73656e646572206973206e6f74207065726d697373696f6e6564206160448201526939903ab73830bab9b2b960b11b6064820152608490fd5b908160209103126103a0575180151581036103a05790565b15612d3357565b60405162461bcd60e51b815260206004820152602860248201527f6d73672e73656e646572206973206e6f74207065726d697373696f6e6564206160448201526739903830bab9b2b960c11b6064820152608490fd5b15612d9057565b60405162461bcd60e51b815260206004820152601c60248201527f5061757361626c653a20636f6e747261637420697320706175736564000000006044820152606490fd5b15612ddc57565b60405162461bcd60e51b815260206004820152601260248201527137b7363ca232b837b9b4ba26b0b730b3b2b960711b6044820152606490fd5b6001600160401b038111612aae5760051b60200190565b9190811015612a7f5760061b0190565b356001600160a01b03811681036103a05790565b8051821015612a7f5760209160051b010190565b60a08091600180831b0380825116855280602083015116602086015260408201511660408501526060810151606085015263ffffffff60808201511660808501520151910152565b604051612ebe602082018093612e65565b60c08152612c6981612b0b565b9192906040519260208401947f39111bc4a4d688e1f685123d7497d4615370152a8ee4a0593e647bd06ad8bb0b865260018060a01b038092166040860152166060840152608083015260a082015260a08152612c3081612af0565b91908203918211612f3357565b634e487b7160e01b5f52601160045260245ffd5b6001600160a01b03908116908115612fa0575f80516020613f4883398151915280546001600160a01b031981168417909155167f8be0079c531659141344cd1fd0a4f28419497f9722a3daafe3b4186f6b6457e05f80a3565b604051631e4fbdf760e01b81525f6004820152602490fd5b6004356001600160a01b0381811692918390036103a05782156131c45760443563ffffffff808216938483036103a0576213c680851161311e57831690815f52606e602052600160405f20015460a01c168410613097575f52606e602052600160405f20856001600160601b0360a01b82541617815501906024359283168093036103a0578282549163ffffffff60a01b9060a01b16916001600160401b0360c01b1617179055604051928352602083015260408201527ffebe5cd24b2cbc7b065b9d0fdeb904461e4afcff57dd57acda1e7832031ba7ac60603392a2565b60405162461bcd60e51b815260206004820152605360248201527f44656c65676174696f6e4d616e616765722e5f7365744f70657261746f72446560448201527f7461696c733a207374616b65724f70744f757457696e646f77426c6f636b732060648201527218d85b9b9bdd08189948191958dc99585cd959606a1b608482015260a490fd5b60405162461bcd60e51b815260206004820152606c60248201527f44656c65676174696f6e4d616e616765722e5f7365744f70657261746f72446560448201527f7461696c733a207374616b65724f70744f757457696e646f77426c6f636b732060648201527f63616e6e6f74206265203e204d41585f5354414b45525f4f50545f4f55545f5760848201526b494e444f575f424c4f434b5360a01b60a482015260c490fd5b60405162461bcd60e51b815260206004820152605460248201527f44656c65676174696f6e4d616e616765722e5f7365744f70657261746f72446560448201527f7461696c733a2063616e6e6f742073657420606561726e696e677352656365696064820152737665726020746f207a65726f206164647265737360601b608482015260a490fd5b6001600160a01b038082165f908152606f60205260409020549394939192911661353b576001600160a01b038082165f908152606e602052604090205416156134bb5760018060a01b0393848216805f52602091606e8352604095876001885f2001541690811515806134b1575b806134a7575b61339f575b50505085841695865f52606f8352855f20826001600160601b0360a01b825416179055606b54600160401b811015612aae57839261330f876107e284600160249601606b55612a4a565b87519889938492827fc3ee9f2e5fda98e8066a1f745b2df9285f416fe98cf2559cd21484b3d87433045f80a360675416906394f649dd60e01b835260048301525afa9384156123ae57505f9361336d575b5061336b93506136d1565b565b90925083813d8311613398575b6133848183612b26565b810103126103a05761336b9251915f613360565b503d61337a565b8483018051421161345657825f5260718652885f20825f52865260ff895f205416613405575f838152607187528981208382528752899020805460ff19166001179055516133fd93926133f49290888a612bcc565b90519086613b0a565b5f80806132c5565b885162461bcd60e51b815260048101879052603760248201525f80516020613f888339815191526044820152761c9bdd995c94d85b1d08185b1c9958591e481cdc195b9d604a1b6064820152608490fd5b885162461bcd60e51b815260048101879052603760248201525f80516020613f888339815191526044820152761c9bdd995c881cda59db985d1d5c9948195e1c1a5c9959604a1b6064820152608490fd5b50833314156132c0565b50813314156132ba565b60405162461bcd60e51b815260206004820152604c60248201527f44656c65676174696f6e4d616e616765722e5f64656c65676174653a206f706560448201527f7261746f72206973206e6f74207265676973746572656420696e20746865776560648201526b3119a1b430b4b72630bcb2b960a11b608482015260a490fd5b60405162461bcd60e51b815260206004820152604160248201527f44656c65676174696f6e4d616e616765722e5f64656c65676174653a2073746160448201527f6b657220697320616c7265616479206163746976656c792064656c65676174656064820152601960fa1b608482015260a490fd5b6001600160a01b03908116908115613605577f6e9fcd539896fca60e8b0f01dd580233e48a6b0f7df013b89ba7f565869acdb660405f549281519084168152846020820152a16001600160a01b031916175f55565b60405162461bcd60e51b815260206004820152604960248201527f5061757361626c652e5f73657450617573657252656769737472793a206e657760448201527f50617573657252656769737472792063616e6e6f7420626520746865207a65726064820152686f206164647265737360b81b608482015260a490fd5b7f9b779b17422d0df92223018b32b4d1fa46e071723d6817e2486d003becc55f0060028154146136b25760029055565b604051633ee5aeb560e01b8152600490fd5b91908201809211612f3357565b917f9a61813b471b5a3bad7bf5dd4feba4df891a682ae28e7114f45e482c5900b72e9160018060a01b0380941693845f52606c60205260405f206137168482546136c4565b9055845f52606d60205260405f209082165f5260205260405f2061373b8382546136c4565b9055604080516001600160a01b039290921682526020820192909252a2565b5f936001600160a01b03808316949293919285156138b157818316928486856138a0575b5050508160675416803b156103a0576040805163beffbb8960e01b81526001600160a01b039790971660048801526024870186905295905f908290604490829084905af180156105155761388d575b508587526073602052848720805493905f19851461387957927f729e18845ad6e11aca72d9186f0964b995424b62fbacad242ee7c0122ed73717979592859260e0989560016138759801905585519761382589612af0565b885260208801521683860152606085015263ffffffff4316608085015260a08401528061385184612ead565b96878152607260205220600160ff1982541617905551918583526020830190612e65565ba190565b634e487b7160e01b89526011600452602489fd5b613898919750612add565b5f955f6137cd565b6138a992613d5d565b5f848661377e565b60405162461bcd60e51b815260206004820152605060248201527f44656c65676174696f6e4d616e616765722e5f72656d6f76655368617265734160448201527f6e6451756575655769746864726177616c3a207374616b65722063616e6e6f7460648201526f206265207a65726f206164647265737360801b608482015260a490fd5b703a3432bbb2b119a1b430b4b72630bcb2b960791b602060405161395881612a93565b60118152015260405160208101907f8cad95687ba82c2ce50e74f7b754645e5117c3a5bec8151c0726d5857980a86682527fb4f1f0622f52949829fdbd2bf895770c775ac21a702d90cdd14a07dec783796c60408201524660608201523060808201526080815260a081018181106001600160401b03821117612aae5760405251902090565b606a549062034bc08111613a22577f1b6158e161a32a2f215ef568645e0193089aa98de51e3f84ff1bedb2b1b7a8479181604092606a5582519182526020820152a1565b60405162461bcd60e51b815260206004820152607660248201527f44656c65676174696f6e4d616e616765722e5f7365744664436861696e42617360448201527f655769746864726177616c44656c6179426c6f636b733a205f7769746864726160648201527f77616c44656c6179426c6f636b732063616e6e6f74206265203e204d41585f5760848201527549544844524157414c5f44454c41595f424c4f434b5360501b60a482015260c490fd5b5f80516020613f48833981519152546001600160a01b03163303613af257565b60405163118cdaa760e01b8152336004820152602490fd5b909190803b15613c77576040518092630b135d3f60e11b948583526004830152604060248301528051908160448401525f5b828110613c5f5750509181606481855f8360209884010152601f8019910116810103019160018060a01b03165afa908115613c54575f91613c11575b506001600160e01b03191603613b8a57565b60405162461bcd60e51b815260206004820152605360248201527f454950313237315369676e61747572655574696c732e636865636b5369676e6160448201527f747572655f454950313237313a2045524331323731207369676e6174757265206064820152721d995c9a599a58d85d1a5bdb8819985a5b1959606a1b608482015260a490fd5b90506020813d602011613c4c575b81613c2c60209383612b26565b810103126103a057516001600160e01b0319811681036103a0575f613b78565b3d9150613c1f565b6040513d5f823e3d90fd5b60208282018101516064888401015286945001613b3c565b90613cc590613cce9360405160208101917f19457468657265756d205369676e6564204d6573736167653a0a3332000000008352603c820152603c8152613cbd81612ac2565b519020613e08565b90939193613e42565b6001600160a01b03908116911603613ce257565b60405162461bcd60e51b815260206004820152604760248201527f454950313237315369676e61747572655574696c732e636865636b5369676e6160448201527f747572655f454950313237313a207369676e6174757265206e6f742066726f6d6064820152661039b4b3b732b960c91b608482015260a490fd5b917f37d3e849079809fe10f0b9db0efe433e86af66f8e95978b12b8d5468f32057499160018060a01b0380941693845f52606c60205260405f20613da2848254612f26565b9055845f52606d60205260405f209082165f5260205260405f2061373b838254612f26565b60ff7ff0c57e16840df040f15088dc2f81fe391c3923bec73e23a9662efc9c229c6a005460401c1615613df657565b604051631afcd79f60e31b8152600490fd5b8151919060418303613e3857613e319250602082015190606060408401519301515f1a90613ec5565b9192909190565b50505f9160029190565b6004811015613eb15780613e54575050565b60018103613e6e5760405163f645eedf60e01b8152600490fd5b60028103613e8f5760405163fce698f760e01b815260048101839052602490fd5b600314613e995750565b602490604051906335e2f38360e21b82526004820152fd5b634e487b7160e01b5f52602160045260245ffd5b91907f7fffffffffffffffffffffffffffffff5d576e7357a4501ddfe92f46681b20a08411613f3c579160209360809260ff5f9560405194855216868401526040830152606082015282805260015afa15613c54575f516001600160a01b03811615613f3257905f905f90565b505f906001905f90565b5050505f916003919056fe9016d09d72d40fdae2fd8ceac6b6234c7706214fd39c1cd1e609a0528c19930044656c65676174696f6e4d616e616765722e5f636f6d706c657465517565756544656c65676174696f6e4d616e616765722e5f64656c65676174653a20617070a2646970667358221220289ec3bce80df4e605320f5248ed7ff95ec8f968377fedceb79f26ae6f7d5da564736f6c63430008180033","linkReferences":{}},"methodIdentifiers":{"DELEGATION_APPROVAL_TYPEHASH()":"04a4f979","DOMAIN_TYPEHASH()":"20606b70","MAX_STAKER_OPT_OUT_WINDOW_BLOCKS()":"4fc40b61","MAX_WITHDRAWAL_DELAY_BLOCKS()":"ca661c04","STAKER_DELEGATION_TYPEHASH()":"43377382","calculateCurrentStakerDelegationDigestHash(address,address,uint256)":"1bbce091","calculateDelegationApprovalDigestHash(address,address,address,bytes32,uint256)":"0b9f487a","calculateStakerDelegationDigestHash(address,uint256,address,uint256)":"c94b5111","calculateWithdrawalRoot((address,address,address,uint256,uint32,uint256))":"8bef87b7","chainBaseWithdrawalDelayBlock()":"eb6aa05f","completeQueuedWithdrawal((address,address,address,uint256,uint32,uint256))":"240fe38e","completeQueuedWithdrawals((address,address,address,uint256,uint32,uint256)[])":"cf3c5c62","cumulativeWithdrawalsQueued(address)":"a1788484","decreaseDelegatedShares(address,uint256)":"a7dc6b18","delegateTo(address,(bytes,uint256),bytes32)":"eea9064b","delegateToBySignature(address,address,(bytes,uint256),(bytes,uint256),bytes32)":"7f548071","delegatedTo(address)":"65da1264","delegationApprover(address)":"3cdeb5e0","delegationApproverSaltIsSpent(address,bytes32)":"bb45fef2","domainSeparator()":"f698da25","earningsReceiver(address)":"5f966f14","fdChainBase()":"6be6f3d4","fdChainDepositManager()":"1fa67d1f","getOperatorShares(address)":"cd8e9cd3","getStakerSharesOfOperator(address)":"42e75c0d","increaseDelegatedShares(address,uint256)":"26e51dae","initialize(address,address,uint256,uint256,address,address,address)":"3e785737","isDelegated(address)":"3e28391d","isOperator(address)":"6d70f7ae","modifyOperatorDetails((address,address,uint32))":"f16172b0","operatorDetails(address)":"c5e480db","operatorShares(address)":"371e21e9","owner()":"8da5cb5b","pause(uint256)":"136439dd","pauseAll()":"595c6a67","paused()":"5c975abb","paused(uint8)":"5ac86ab7","pauserRegistry()":"886f1195","pendingWithdrawals(bytes32)":"b7f06ebe","queueWithdrawals((uint256,address)[])":"32505f0c","registerAsOperator((address,address,uint32),string)":"0f589e59","renounceOwnership()":"715018a6","setFdChainBaseWithdrawalDelayBlocks(uint256)":"b51ca3da","setPauserRegistry(address)":"10d67a2f","slashingManager()":"8e5ce3ad","slashingStakingShares(address,address,uint256)":"fadbb5e1","stakerDelegateSharesToOperator(address,address)":"7ce823d6","stakerList(uint256)":"348e50c6","stakerNonce(address)":"29c77d4f","stakerOptOutWindowBlocks(address)":"16928365","transferOwnership(address)":"f2fde38b","undelegate(address)":"da8be864","unpause(uint256)":"fabc1cbc","unpauseAll()":"8a2ddd03","updateOperatorNodeUrl(string)":"1c8392d7"},"id":56}