{"abi":[{"type":"constructor","inputs":[],"stateMutability":"nonpayable"},{"type":"function","name":"FdChainDepositManager","inputs":[],"outputs":[{"name":"","type":"address","internalType":"contract IFdChainDepositManager"}],"stateMutability":"view"},{"type":"function","name":"deleteStaker","inputs":[{"name":"staker","type":"address","internalType":"address"}],"outputs":[],"stateMutability":"nonpayable"},{"type":"function","name":"deposit","inputs":[{"name":"amount","type":"uint256","internalType":"uint256"},{"name":"staker","type":"address","internalType":"address"}],"outputs":[{"name":"newShares","type":"uint256","internalType":"uint256"}],"stateMutability":"payable"},{"type":"function","name":"explanation","inputs":[],"outputs":[{"name":"","type":"string","internalType":"string"}],"stateMutability":"pure"},{"type":"function","name":"getDepositLimits","inputs":[],"outputs":[{"name":"","type":"uint256","internalType":"uint256"},{"name":"","type":"uint256","internalType":"uint256"}],"stateMutability":"view"},{"type":"function","name":"initialize","inputs":[{"name":"_pauserRegistry","type":"address","internalType":"contract IPauserRegistry"},{"name":"_minDeposit","type":"uint256","internalType":"uint256"},{"name":"_maxDeposit","type":"uint256","internalType":"uint256"},{"name":"_FdChainDepositManager","type":"address","internalType":"contract IFdChainDepositManager"}],"outputs":[],"stateMutability":"nonpayable"},{"type":"function","name":"maxDeposit","inputs":[],"outputs":[{"name":"","type":"uint256","internalType":"uint256"}],"stateMutability":"view"},{"type":"function","name":"minDeposit","inputs":[],"outputs":[{"name":"","type":"uint256","internalType":"uint256"}],"stateMutability":"view"},{"type":"function","name":"pause","inputs":[{"name":"newPausedStatus","type":"uint256","internalType":"uint256"}],"outputs":[],"stateMutability":"nonpayable"},{"type":"function","name":"pauseAll","inputs":[],"outputs":[],"stateMutability":"nonpayable"},{"type":"function","name":"paused","inputs":[{"name":"index","type":"uint8","internalType":"uint8"}],"outputs":[{"name":"","type":"bool","internalType":"bool"}],"stateMutability":"view"},{"type":"function","name":"paused","inputs":[],"outputs":[{"name":"","type":"uint256","internalType":"uint256"}],"stateMutability":"view"},{"type":"function","name":"pauserRegistry","inputs":[],"outputs":[{"name":"","type":"address","internalType":"contract IPauserRegistry"}],"stateMutability":"view"},{"type":"function","name":"setDepositLimits","inputs":[{"name":"newMinDeposit","type":"uint256","internalType":"uint256"},{"name":"newMaxDeposit","type":"uint256","internalType":"uint256"}],"outputs":[],"stateMutability":"nonpayable"},{"type":"function","name":"setPauserRegistry","inputs":[{"name":"newPauserRegistry","type":"address","internalType":"contract IPauserRegistry"}],"outputs":[],"stateMutability":"nonpayable"},{"type":"function","name":"shares","inputs":[{"name":"user","type":"address","internalType":"address"}],"outputs":[{"name":"","type":"uint256","internalType":"uint256"}],"stateMutability":"view"},{"type":"function","name":"sharesToUnderlying","inputs":[{"name":"amountShares","type":"uint256","internalType":"uint256"}],"outputs":[{"name":"","type":"uint256","internalType":"uint256"}],"stateMutability":"view"},{"type":"function","name":"sharesToUnderlyingView","inputs":[{"name":"amountShares","type":"uint256","internalType":"uint256"}],"outputs":[{"name":"","type":"uint256","internalType":"uint256"}],"stateMutability":"view"},{"type":"function","name":"stakerExistInList","inputs":[{"name":"","type":"address","internalType":"address"}],"outputs":[{"name":"","type":"bool","internalType":"bool"}],"stateMutability":"view"},{"type":"function","name":"stakerListFind","inputs":[{"name":"index","type":"uint256","internalType":"uint256"}],"outputs":[{"name":"","type":"address","internalType":"address"}],"stateMutability":"view"},{"type":"function","name":"stakerListLength","inputs":[],"outputs":[{"name":"","type":"uint256","internalType":"uint256"}],"stateMutability":"view"},{"type":"function","name":"stakerNumbers","inputs":[],"outputs":[{"name":"","type":"uint256","internalType":"uint256"}],"stateMutability":"view"},{"type":"function","name":"totalShares","inputs":[],"outputs":[{"name":"","type":"uint256","internalType":"uint256"}],"stateMutability":"view"},{"type":"function","name":"underlyingToShares","inputs":[{"name":"amountUnderlying","type":"uint256","internalType":"uint256"}],"outputs":[{"name":"","type":"uint256","internalType":"uint256"}],"stateMutability":"view"},{"type":"function","name":"underlyingToSharesView","inputs":[{"name":"amountUnderlying","type":"uint256","internalType":"uint256"}],"outputs":[{"name":"","type":"uint256","internalType":"uint256"}],"stateMutability":"view"},{"type":"function","name":"unpause","inputs":[{"name":"newPausedStatus","type":"uint256","internalType":"uint256"}],"outputs":[],"stateMutability":"nonpayable"},{"type":"function","name":"unpauseAll","inputs":[],"outputs":[],"stateMutability":"nonpayable"},{"type":"function","name":"userUnderlying","inputs":[{"name":"user","type":"address","internalType":"address"}],"outputs":[{"name":"","type":"uint256","internalType":"uint256"}],"stateMutability":"nonpayable"},{"type":"function","name":"userUnderlyingView","inputs":[{"name":"user","type":"address","internalType":"address"}],"outputs":[{"name":"","type":"uint256","internalType":"uint256"}],"stateMutability":"view"},{"type":"function","name":"withdraw","inputs":[{"name":"recipient","type":"address","internalType":"address"},{"name":"amountShares","type":"uint256","internalType":"uint256"}],"outputs":[],"stateMutability":"nonpayable"},{"type":"event","name":"Initialized","inputs":[{"name":"version","type":"uint64","indexed":false,"internalType":"uint64"}],"anonymous":false},{"type":"event","name":"MaxDepositUpdated","inputs":[{"name":"previousValue","type":"uint256","indexed":false,"internalType":"uint256"},{"name":"newValue","type":"uint256","indexed":false,"internalType":"uint256"}],"anonymous":false},{"type":"event","name":"MinDepositUpdated","inputs":[{"name":"previousValue","type":"uint256","indexed":false,"internalType":"uint256"},{"name":"newValue","type":"uint256","indexed":false,"internalType":"uint256"}],"anonymous":false},{"type":"event","name":"Paused","inputs":[{"name":"account","type":"address","indexed":true,"internalType":"address"},{"name":"newPausedStatus","type":"uint256","indexed":false,"internalType":"uint256"}],"anonymous":false},{"type":"event","name":"PauserRegistrySet","inputs":[{"name":"pauserRegistry","type":"address","indexed":false,"internalType":"contract IPauserRegistry"},{"name":"newPauserRegistry","type":"address","indexed":false,"internalType":"contract IPauserRegistry"}],"anonymous":false},{"type":"event","name":"Unpaused","inputs":[{"name":"account","type":"address","indexed":true,"internalType":"address"},{"name":"newPausedStatus","type":"uint256","indexed":false,"internalType":"uint256"}],"anonymous":false},{"type":"error","name":"InvalidInitialization","inputs":[]},{"type":"error","name":"NotInitializing","inputs":[]}],"bytecode":{"object":"0x608080604052346100b8577ff0c57e16840df040f15088dc2f81fe391c3923bec73e23a9662efc9c229c6a009081549060ff8260401c166100a957506001600160401b036002600160401b031982821601610064575b60405161161490816100bd8239f35b6001600160401b031990911681179091556040519081527fc7f505b2f371ae2175ee4913f4499e1f2633a7b5936321eed1cdaeb6115181d290602090a15f8080610055565b63f92ee8a960e01b8152600490fd5b5f80fdfe608060409080825260049081361015610016575f80fd5b5f3560e01c90816310d67a2f146110a957508063136439dd14610f9157806328bc078d14610f5c5780633a98ef3914610f3e57806341b3d18514610f205780634ad505e214610ef85780634eddea0614610ec257806351d75fe314610ea4578063553ca5f814610874578063595c6a6714610de55780635ac86ab714610db35780635c975abb14610d955780636083e59a14610d775780636e553f6514610ac85780637a8b2637146104af5780637f414cf814610aa557806385d1965d14610963578063886f11951461093c5780638a2ddd031461089c5780638c871019146104d55780638f6a6240146108745780639e3d87cd14610634578063ab5921e114610573578063ce7c2ac21461054e578063d173824f14610512578063d3301da5146104f4578063e3dae51c146104d5578063f3e73875146104af578063f3fef3a31461029d5763fabc1cbc1461016a575f80fd5b3461029957602080600319360112610299575f54835163755b36bd60e11b8152833593916001600160a01b0390849083908590829085165afa801561028f576101bd925f91610262575b5016331461119a565b6001541983198116036101fb575081927f3582d1828e26bf56bd801502bc021ac0bc8afb57c826e4986b45593c8fad389c92600155519283523392a2005b60849184519162461bcd60e51b8352820152603860248201527f5061757361626c652e756e70617573653a20696e76616c696420617474656d7060448201527f7420746f2070617573652066756e6374696f6e616c69747900000000000000006064820152fd5b6102829150853d8711610288575b61027a8183611145565b81019061117b565b5f6101b4565b503d610270565b86513d5f823e3d90fd5b5f80fd5b50346102995781600319360112610299576102b661112f565b9160249283359060015461046d576068546001600160a01b0391906102de90831633146112b7565b606b54928381116103f0576103e8808501908186116103de57479081018091116103de57935f9591936103298461032389989761031e8a99988a99611324565b611337565b94611303565b606b55165af13d156103d9573d67ffffffffffffffff81116103c75782519061035c601f8201601f191660200183611145565b81525f60203d92013e5b1561036d57005b6084926020603092519362461bcd60e51b85528401528201527f4664436861696e426173652e5f61667465725769746864726177616c3a20747260448201526f185b9cd9995c881d1dc819985a5b195960821b6064820152fd5b84604185634e487b7160e01b5f52525ffd5b610366565b88601189634e487b7160e01b5f52525ffd5b845162461bcd60e51b8152602081880152604c818901527f4664436861696e426173652e77697468647261773a20616d6f756e745368617260448201527f6573206d757374206265206c657373207468616e206f7220657175616c20746f60648201526b20746f74616c53686172657360a01b608482015260a490fd5b825162461bcd60e51b8152602081860152601c818701527f5061757361626c653a20636f6e747261637420697320706175736564000000006044820152606490fd5b509034610299576020366003190112610299576104ce60209235611355565b9051908152f35b509034610299576020366003190112610299576104ce602092356113f9565b8234610299575f366003190112610299576020906066549051908152f35b8234610299576020366003190112610299576020906001600160a01b0361053761112f565b165f526067825260ff815f20541690519015158152f35b8234610299576020366003190112610299576020906104ce61056e61112f565b611380565b509034610299575f36600319011261029957805191606083019083821067ffffffffffffffff831117610621575081526021825260207f74686577656233436861696e20506f73205374616b696e672050726f746f636f6020840152601b60fa1b828401528151928391602083528151918260208501525f5b83811061060b5750505f83830185015250601f01601f19168101030190f35b81810183015187820187015286945082016105ec565b604190634e487b7160e01b5f525260245ffd5b50346102995760803660031901126102995761064e61112f565b6001600160a01b03906064358281169190829003610299577ff0c57e16840df040f15088dc2f81fe391c3923bec73e23a9662efc9c229c6a009384549360ff85881c16159467ffffffffffffffff81168015908161086c575b6001149081610862575b159081610859575b506108495767ffffffffffffffff19811660011787558561082a575b506106e46044356024356114f5565b60ff8654881c161561081b57805f541615908161080f575b5015610796575061073b905f60015585515f81527fab40a374bc51de372200a8bc981af8c9ecdc08dfdaef0bb6e09f88f3c616ef3d60203392a2611423565b6bffffffffffffffffffffffff60a01b606854161760685561075957005b805468ff00000000000000001916905551600181527fc7f505b2f371ae2175ee4913f4499e1f2633a7b5936321eed1cdaeb6115181d290602090a1005b60a490602087519162461bcd60e51b8352820152604760248201527f5061757361626c652e5f696e697469616c697a655061757365723a205f696e6960448201527f7469616c697a6550617573657228292063616e206f6e6c792062652063616c6c6064820152666564206f6e636560c81b6084820152fd5b9050821615155f6106fc565b508551631afcd79f60e31b8152fd5b68ffffffffffffffffff1916680100000000000000011786555f6106d5565b875163f92ee8a960e01b81528390fd5b9050155f6106b9565b303b1591506106b1565b8791506106a7565b8234610299576020366003190112610299576020906104ce61089761056e61112f565b611355565b5034610299575f366003190112610299575f54825163755b36bd60e11b8152916001600160a01b03916020918491829085165afa8015610932576108e9925f91610919575016331461119a565b5f600155515f81527f3582d1828e26bf56bd801502bc021ac0bc8afb57c826e4986b45593c8fad389c60203392a2005b610282915060203d6020116102885761027a8183611145565b83513d5f823e3d90fd5b8234610299575f366003190112610299575f5490516001600160a01b039091168152602090f35b5090346102995760209060206003193601126102995761098161112f565b6068546001600160a01b0393919061099c90851633146112b7565b60669360665494815f9316925b8681106109b257005b82846109bd8361126e565b929054600393841b1c16146109d557506001016109a9565b91909394959650606c928354945f1995868101908111610a925790610a0d83610a00610a2b9461126e565b905490881b1c169161126e565b90919060018060a01b038084549260031b9316831b921b1916179055565b81548015610a7f57850192610a3f8461126e565b81939154921b1b19169055558054918201918211610a6c57555f908152606790915220805460ff19169055005b601186634e487b7160e01b5f525260245ffd5b60318a634e487b7160e01b5f525260245ffd5b60118b634e487b7160e01b5f525260245ffd5b8234610299575f36600319011261029957606954606a5482519182526020820152f35b509080600319360112610299576024918035919083356001600160a01b03818116929083830361029957610b01906068541633146112b7565b606c549560209687811015610d35576069548710610ccd57606a548711610c6557606b54966103e880890190818a11610c535747908101809111610c53578291610b51610b579461031e93611303565b92611324565b968715610bfa57878101809111610be857606b55845f526067885260ff865f20541615610b88575b87878751908152f35b600101606c556066549168010000000000000000831015610bd757505090610a0d826001610bb9940160665561126e565b5f5260678352805f20600160ff198254161790555f80808080610b7f565b604190634e487b7160e01b5f52525ffd5b82601185634e487b7160e01b5f52525ffd5b865162461bcd60e51b81528085018a9052602e818501527f4664436861696e426173652e6465706f7369743a206e6577207368617265732060448201526d63616e6e6f74206265207a65726f60901b6064820152608490fd5b84601187634e487b7160e01b5f52525ffd5b855162461bcd60e51b8152808401899052603c818401527f4664436861696e426173653a206465706f73697420746f6b656e206d7573742060448201527f6c657373207468616e206d6178206465706f73697420616d6f756e74000000006064820152608490fd5b855162461bcd60e51b8152808401899052603c818401527f4664436861696e426173653a206465706f73697420746f6b656e206d7573742060448201527f6d6f7265207468616e206d696e206465706f73697420616d6f756e74000000006064820152608490fd5b855162461bcd60e51b8152808401899052601d818401527f5374616b65727320746f6f206d75636820696e207468697320706f6f6c0000006044820152606490fd5b8234610299575f36600319011261029957602090606a549051908152f35b8234610299575f366003190112610299576020906001549051908152f35b503461029957602036600319011261029957359060ff82168092036102995760016020921b8060015416149051908152f35b5034610299575f366003190112610299575f54825163237dfb4760e11b81523392810192909252602090829060249082906001600160a01b03165afa8015610e9a57610e38915f91610e6b575b50611211565b5f199081600155519081527fab40a374bc51de372200a8bc981af8c9ecdc08dfdaef0bb6e09f88f3c616ef3d60203392a2005b610e8d915060203d602011610e93575b610e858183611145565b8101906111f9565b5f610e32565b503d610e7b565b82513d5f823e3d90fd5b8234610299575f36600319011261029957602090606c549051908152f35b5090346102995736600319011261029957610ef690610eec60018060a01b036068541633146112b7565b60243590356114f5565b005b8234610299575f3660031901126102995760685490516001600160a01b039091168152602090f35b8234610299575f366003190112610299576020906069549051908152f35b8234610299575f36600319011261029957602090606b549051908152f35b50903461029957602036600319011261029957610f7b6020923561126e565b905491519160018060a01b039160031b1c168152f35b503461029957602080600319360112610299575f54835163237dfb4760e11b81523381850152833593918390829060249082906001600160a01b03165afa801561109f57610fe5915f916110885750611211565b60015483811603611021575081927fab40a374bc51de372200a8bc981af8c9ecdc08dfdaef0bb6e09f88f3c616ef3d92600155519283523392a2005b60849184519162461bcd60e51b8352820152603860248201527f5061757361626c652e70617573653a20696e76616c696420617474656d70742060448201527f746f20756e70617573652066756e6374696f6e616c69747900000000000000006064820152fd5b610e8d9150843d8611610e9357610e858183611145565b85513d5f823e3d90fd5b90508234610299576020366003190112610299576110c561112f565b9160208160018060a01b039581875f541663755b36bd60e11b82525afa91821561112657509261110291610ef6945f91611107575016331461119a565b611423565b611120915060203d6020116102885761027a8183611145565b856101b4565b513d5f823e3d90fd5b600435906001600160a01b038216820361029957565b90601f8019910116810190811067ffffffffffffffff82111761116757604052565b634e487b7160e01b5f52604160045260245ffd5b9081602091031261029957516001600160a01b03811681036102995790565b156111a157565b60405162461bcd60e51b815260206004820152602a60248201527f6d73672e73656e646572206973206e6f74207065726d697373696f6e6564206160448201526939903ab73830bab9b2b960b11b6064820152608490fd5b90816020910312610299575180151581036102995790565b1561121857565b60405162461bcd60e51b815260206004820152602860248201527f6d73672e73656e646572206973206e6f74207065726d697373696f6e6564206160448201526739903830bab9b2b960c11b6064820152608490fd5b6066548110156112a35760665f527f46501879b8ca8525e8c2fd519e2fbfcfa2ebea26501294aa02cbfcfb12e9435401905f90565b634e487b7160e01b5f52603260045260245ffd5b156112be57565b60405162461bcd60e51b815260206004820152601f60248201527f4664436861696e426173652e6f6e6c7953747261746567794d616e61676572006044820152606490fd5b9190820391821161131057565b634e487b7160e01b5f52601160045260245ffd5b8181029291811591840414171561131057565b8115611341570490565b634e487b7160e01b5f52601260045260245ffd5b606b546103e880820180921161131057479081018091116113105761137d9261031e91611324565b90565b606854604051633066e7f560e01b81526001600160a01b0392831660048201529160209183916024918391165afa9081156113ee575f916113bf575090565b90506020813d6020116113e6575b816113da60209383611145565b81010312610299575190565b3d91506113cd565b6040513d5f823e3d90fd5b606b54906103e89081830180931161131057479182018092116113105761137d9261031e91611324565b6001600160a01b03908116908115611478577f6e9fcd539896fca60e8b0f01dd580233e48a6b0f7df013b89ba7f565869acdb660405f549281519084168152846020820152a16001600160a01b031916175f55565b60405162461bcd60e51b815260206004820152604960248201527f5061757361626c652e5f73657450617573657252656769737472793a206e657760448201527f50617573657252656769737472792063616e6e6f7420626520746865207a65726064820152686f206164647265737360b81b608482015260a490fd5b816069547fb566d3df2587c9e70b06b6419bdeeeeec8ca8cd60e4c48c6baad0d94c46809c760408051838152856020820152a17f78131f623b32212db92dadc6f203f2aeb863f71ce1a61b8eafc1ece42816c5ba6040606a548151908152846020820152a11161156757606955606a55565b60405162461bcd60e51b815260206004820152604360248201527f4664436861696e426173652e5f7365744465706f7369744c696d6974733a206d60448201527f696e4465706f736974206d757374206c657373207468616e206d61784465706f6064820152621cda5d60ea1b608482015260a490fdfea2646970667358221220ae2805f2d2357db6d27ba5ed94defc9d73d3fa597eca15fa5fff67da40675d3c64736f6c63430008180033","linkReferences":{}},"methodIdentifiers":{"FdChainDepositManager()":"4ad505e2","deleteStaker(address)":"85d1965d","deposit(uint256,address)":"6e553f65","explanation()":"ab5921e1","getDepositLimits()":"7f414cf8","initialize(address,uint256,uint256,address)":"9e3d87cd","maxDeposit()":"6083e59a","minDeposit()":"41b3d185","pause(uint256)":"136439dd","pauseAll()":"595c6a67","paused()":"5c975abb","paused(uint8)":"5ac86ab7","pauserRegistry()":"886f1195","setDepositLimits(uint256,uint256)":"4eddea06","setPauserRegistry(address)":"10d67a2f","shares(address)":"ce7c2ac2","sharesToUnderlying(uint256)":"f3e73875","sharesToUnderlyingView(uint256)":"7a8b2637","stakerExistInList(address)":"d173824f","stakerListFind(uint256)":"28bc078d","stakerListLength()":"d3301da5","stakerNumbers()":"51d75fe3","totalShares()":"3a98ef39","underlyingToShares(uint256)":"8c871019","underlyingToSharesView(uint256)":"e3dae51c","unpause(uint256)":"fabc1cbc","unpauseAll()":"8a2ddd03","userUnderlying(address)":"8f6a6240","userUnderlyingView(address)":"553ca5f8","withdraw(address,uint256)":"f3fef3a3"},"id":58}