{"abi":[{"type":"constructor","inputs":[],"stateMutability":"nonpayable"},{"type":"receive","stateMutability":"payable"},{"type":"function","name":"SCALE","inputs":[],"outputs":[{"name":"","type":"uint256","internalType":"uint256"}],"stateMutability":"view"},{"type":"function","name":"delegationManager","inputs":[],"outputs":[{"name":"","type":"address","internalType":"contract IDelegationManager"}],"stateMutability":"view"},{"type":"function","name":"fdChainDepositManager","inputs":[],"outputs":[{"name":"","type":"address","internalType":"contract IFdChainDepositManager"}],"stateMutability":"view"},{"type":"function","name":"getStakeHolderAmount","inputs":[{"name":"chainBase","type":"address","internalType":"address"}],"outputs":[{"name":"","type":"uint256","internalType":"uint256"}],"stateMutability":"view"},{"type":"function","name":"initialize","inputs":[{"name":"initialOwner","type":"address","internalType":"address"},{"name":"_rewardManager","type":"address","internalType":"address"},{"name":"_payFeeManager","type":"address","internalType":"address"},{"name":"_stakePercent","type":"uint256","internalType":"uint256"},{"name":"_pauserRegistry","type":"address","internalType":"contract IPauserRegistry"},{"name":"_delegationManager","type":"address","internalType":"contract IDelegationManager"},{"name":"_fdChainDepositManager","type":"address","internalType":"contract IFdChainDepositManager"}],"outputs":[],"stateMutability":"nonpayable"},{"type":"function","name":"operatorClaimReward","inputs":[],"outputs":[{"name":"","type":"bool","internalType":"bool"}],"stateMutability":"nonpayable"},{"type":"function","name":"operatorRewards","inputs":[{"name":"","type":"address","internalType":"address"}],"outputs":[{"name":"","type":"uint256","internalType":"uint256"}],"stateMutability":"view"},{"type":"function","name":"owner","inputs":[],"outputs":[{"name":"","type":"address","internalType":"address"}],"stateMutability":"view"},{"type":"function","name":"pause","inputs":[{"name":"newPausedStatus","type":"uint256","internalType":"uint256"}],"outputs":[],"stateMutability":"nonpayable"},{"type":"function","name":"pauseAll","inputs":[],"outputs":[],"stateMutability":"nonpayable"},{"type":"function","name":"paused","inputs":[{"name":"index","type":"uint8","internalType":"uint8"}],"outputs":[{"name":"","type":"bool","internalType":"bool"}],"stateMutability":"view"},{"type":"function","name":"paused","inputs":[],"outputs":[{"name":"","type":"uint256","internalType":"uint256"}],"stateMutability":"view"},{"type":"function","name":"pauserRegistry","inputs":[],"outputs":[{"name":"","type":"address","internalType":"contract IPauserRegistry"}],"stateMutability":"view"},{"type":"function","name":"payFee","inputs":[{"name":"chainBase","type":"address","internalType":"address"},{"name":"operator","type":"address","internalType":"address"},{"name":"baseFee","type":"uint256","internalType":"uint256"}],"outputs":[],"stateMutability":"nonpayable"},{"type":"function","name":"payFeeManager","inputs":[],"outputs":[{"name":"","type":"address","internalType":"address"}],"stateMutability":"view"},{"type":"function","name":"renounceOwnership","inputs":[],"outputs":[],"stateMutability":"nonpayable"},{"type":"function","name":"rewardManager","inputs":[],"outputs":[{"name":"","type":"address","internalType":"address"}],"stateMutability":"view"},{"type":"function","name":"setPauserRegistry","inputs":[{"name":"newPauserRegistry","type":"address","internalType":"contract IPauserRegistry"}],"outputs":[],"stateMutability":"nonpayable"},{"type":"function","name":"stakeHolderClaimReward","inputs":[{"name":"chainBase","type":"address","internalType":"address"}],"outputs":[{"name":"","type":"bool","internalType":"bool"}],"stateMutability":"nonpayable"},{"type":"function","name":"stakePercent","inputs":[],"outputs":[{"name":"","type":"uint256","internalType":"uint256"}],"stateMutability":"view"},{"type":"function","name":"transferOwnership","inputs":[{"name":"newOwner","type":"address","internalType":"address"}],"outputs":[],"stateMutability":"nonpayable"},{"type":"function","name":"unpause","inputs":[{"name":"newPausedStatus","type":"uint256","internalType":"uint256"}],"outputs":[],"stateMutability":"nonpayable"},{"type":"function","name":"unpauseAll","inputs":[],"outputs":[],"stateMutability":"nonpayable"},{"type":"function","name":"updateStakePercent","inputs":[{"name":"_stakePercent","type":"uint256","internalType":"uint256"}],"outputs":[],"stateMutability":"nonpayable"},{"type":"event","name":"Initialized","inputs":[{"name":"version","type":"uint64","indexed":false,"internalType":"uint64"}],"anonymous":false},{"type":"event","name":"OperatorAndStakeReward","inputs":[{"name":"chainBase","type":"address","indexed":false,"internalType":"address"},{"name":"operator","type":"address","indexed":false,"internalType":"address"},{"name":"stakerFee","type":"uint256","indexed":false,"internalType":"uint256"},{"name":"operatorFee","type":"uint256","indexed":false,"internalType":"uint256"}],"anonymous":false},{"type":"event","name":"OperatorClaimReward","inputs":[{"name":"operator","type":"address","indexed":false,"internalType":"address"},{"name":"amount","type":"uint256","indexed":false,"internalType":"uint256"}],"anonymous":false},{"type":"event","name":"OwnershipTransferred","inputs":[{"name":"previousOwner","type":"address","indexed":true,"internalType":"address"},{"name":"newOwner","type":"address","indexed":true,"internalType":"address"}],"anonymous":false},{"type":"event","name":"Paused","inputs":[{"name":"account","type":"address","indexed":true,"internalType":"address"},{"name":"newPausedStatus","type":"uint256","indexed":false,"internalType":"uint256"}],"anonymous":false},{"type":"event","name":"PauserRegistrySet","inputs":[{"name":"pauserRegistry","type":"address","indexed":false,"internalType":"contract IPauserRegistry"},{"name":"newPauserRegistry","type":"address","indexed":false,"internalType":"contract IPauserRegistry"}],"anonymous":false},{"type":"event","name":"StakeHolderClaimReward","inputs":[{"name":"stakeHolder","type":"address","indexed":false,"internalType":"address"},{"name":"chainBase","type":"address","indexed":false,"internalType":"address"},{"name":"amount","type":"uint256","indexed":false,"internalType":"uint256"}],"anonymous":false},{"type":"event","name":"Unpaused","inputs":[{"name":"account","type":"address","indexed":true,"internalType":"address"},{"name":"newPausedStatus","type":"uint256","indexed":false,"internalType":"uint256"}],"anonymous":false},{"type":"error","name":"InvalidInitialization","inputs":[]},{"type":"error","name":"NotInitializing","inputs":[]},{"type":"error","name":"OwnableInvalidOwner","inputs":[{"name":"owner","type":"address","internalType":"address"}]},{"type":"error","name":"OwnableUnauthorizedAccount","inputs":[{"name":"account","type":"address","internalType":"address"}]},{"type":"error","name":"ReentrancyGuardReentrantCall","inputs":[]}],"bytecode":{"object":"0x608080604052346100b8577ff0c57e16840df040f15088dc2f81fe391c3923bec73e23a9662efc9c229c6a009081549060ff8260401c166100a957506001600160401b036002600160401b031982821601610064575b6040516116cb90816100bd8239f35b6001600160401b031990911681179091556040519081527fc7f505b2f371ae2175ee4913f4499e1f2633a7b5936321eed1cdaeb6115181d290602090a15f8080610055565b63f92ee8a960e01b8152600490fd5b5f80fdfe608060409080825260049081361015610022575b5050503615610020575f80fd5b005b5f3560e01c90816258091d146110bc57508063057e3f24146110945780630adfcd8114610c3f5780630f4ef8a614610c1757806310d67a2f14610ba6578063136439dd14610a8d5780631fa67d1f14610a655780632cb082721461097457806334a6cdc51461095657806341a2b8d61461091f578063595c6a671461085f5780635ac86ab71461082d5780635c975abb1461080f578063715018a6146107a857806386d48fb514610695578063886f11951461066d5780638a2ddd03146105cc5780638da5cb5b14610598578063a46457df14610559578063e344b1d6146102db578063ea4d3c9b146102b4578063eced552614610292578063f2fde38b146102695763fabc1cbc146101355780610013565b346102655760208060031936011261026557606b54835163755b36bd60e11b8152833593916001600160a01b0390849083908590829085165afa801561025b57610189925f9161022e575b501633146113c3565b606c541983198116036101c7575081927f3582d1828e26bf56bd801502bc021ac0bc8afb57c826e4986b45593c8fad389c92606c55519283523392a2005b60849184519162461bcd60e51b8352820152603860248201527f5061757361626c652e756e70617573653a20696e76616c696420617474656d7060448201527f7420746f2070617573652066756e6374696f6e616c69747900000000000000006064820152fd5b61024e9150853d8711610254575b61024681836112d0565b8101906113a4565b5f610180565b503d61023c565b86513d5f823e3d90fd5b5f80fd5b3461026557602036600319011261026557610020610285611239565b61028d6115dc565b611497565b8234610265575f3660031901126102655760209051670de0b6b3a76400008152f35b8234610265575f366003190112610265575f5490516001600160a01b039091168152602090f35b50346102655760e0366003190112610265576102f5611239565b6102fd61124f565b916001600160a01b0390604435828116919082900361026557608435838116918282036102655760a435928584168094036102655760c43595808716809703610265577ff0c57e16840df040f15088dc2f81fe391c3923bec73e23a9662efc9c229c6a009889549860ff8a8d1c16159967ffffffffffffffff811680159081610551575b6001149081610547575b15908161053e575b5061052e5767ffffffffffffffff1981166001178c558392916103c7918c61050f575b506103bf611614565b61028d611614565b6bffffffffffffffffffffffff60a01b978886541617855516866003541617600355606435600255606b5416159081610505575b501561048c575061043a905f606c5587515f81527fab40a374bc51de372200a8bc981af8c9ecdc08dfdaef0bb6e09f88f3c616ef3d60203392a2611508565b815f5416175f55600154161760015561044f57005b805468ff00000000000000001916905551600181527fc7f505b2f371ae2175ee4913f4499e1f2633a7b5936321eed1cdaeb6115181d290602090a1005b60a490602089519162461bcd60e51b8352820152604760248201527f5061757361626c652e5f696e697469616c697a655061757365723a205f696e6960448201527f7469616c697a6550617573657228292063616e206f6e6c792062652063616c6c6064820152666564206f6e636560c81b6084820152fd5b905015155f6103fb565b68ffffffffffffffffff191668010000000000000001178d555f6103b6565b8c5163f92ee8a960e01b81528690fd5b9050155f610393565b303b15915061038b565b8c9150610381565b8234610265576020366003190112610265576020906001600160a01b0361057e611239565b165f5260068252805f20335f528252805f20549051908152f35b8234610265575f366003190112610265575f805160206116568339815191525490516001600160a01b039091168152602090f35b5034610265575f36600319011261026557606b54825163755b36bd60e11b8152916001600160a01b03916020918491829085165afa80156106635761061a925f9161064a57501633146113c3565b5f606c55515f81527f3582d1828e26bf56bd801502bc021ac0bc8afb57c826e4986b45593c8fad389c60203392a2005b61024e915060203d6020116102545761024681836112d0565b83513d5f823e3d90fd5b8234610265575f36600319011261026557606b5490516001600160a01b039091168152602090f35b503461026557602036600319011261026557600354813592906001600160a01b0316330361073f5782156106ca576002839055005b90602060a492519162461bcd60e51b8352820152604360248201527f5265776172644d616e61676572207570646174655374616b6550657263656e7460448201527f3a205f7374616b6550657263656e74206e656564206d6f7265207468656e207a60648201526265726f60e81b6084820152fd5b906020608492519162461bcd60e51b8352820152603860248201527f5265776172644d616e616765722e6f6e6c7920726577617264206d616e61676560448201527f722063616e2063616c6c20746869732066756e6374696f6e00000000000000006064820152fd5b34610265575f366003190112610265576107c06115dc565b5f8051602061165683398151915280546001600160a01b031981169091555f906001600160a01b03167f8be0079c531659141344cd1fd0a4f28419497f9722a3daafe3b4186f6b6457e08280a3005b8234610265575f36600319011261026557602090606c549051908152f35b503461026557602036600319011261026557359060ff82168092036102655760016020921b80606c5416149051908152f35b5034610265575f36600319011261026557606b54825163237dfb4760e11b81523392810192909252602090829060249082906001600160a01b03165afa8015610915576108b3915f916108e6575b5061143a565b5f199081606c55519081527fab40a374bc51de372200a8bc981af8c9ecdc08dfdaef0bb6e09f88f3c616ef3d60203392a2005b610908915060203d60201161090e575b61090081836112d0565b810190611422565b5f6108ad565b503d6108f6565b82513d5f823e3d90fd5b8234610265576020366003190112610265576020906001600160a01b03610944611239565b165f5260058252805f20549051908152f35b8234610265575f366003190112610265576020906002549051908152f35b5034610265575f36600319011261026557335f526005602052815f20549081156109fa576020835f808080876109ac81471015611265565b3382526005875281868120557ff358f13bbeaf315167e16e69fa1b06ca23f46b7fcc119b65b735a427539b332b868051338152838a820152a1335af1906109f1611306565b50519015158152f35b60a490602084519162461bcd60e51b8352820152604c60248201525f8051602061167683398151915260448201527f643a206f70657261746f7220636c61696d20616d6f756e74206e656564206d6f60648201526b7265207468656e207a65726f60a01b6084820152fd5b8234610265575f3660031901126102655760015490516001600160a01b039091168152602090f35b50346102655760208060031936011261026557606b54835163237dfb4760e11b81523381850152833593918390829060249082906001600160a01b03165afa8015610b9c57610ae2915f91610b85575061143a565b606c5483811603610b1e575081927fab40a374bc51de372200a8bc981af8c9ecdc08dfdaef0bb6e09f88f3c616ef3d92606c55519283523392a2005b60849184519162461bcd60e51b8352820152603860248201527f5061757361626c652e70617573653a20696e76616c696420617474656d70742060448201527f746f20756e70617573652066756e6374696f6e616c69747900000000000000006064820152fd5b6109089150843d861161090e5761090081836112d0565b85513d5f823e3d90fd5b50903461026557602036600319011261026557610bc1611239565b606b54825163755b36bd60e11b81526001600160a01b039492939290916020918391829088165afa918215610c0e575092610c0991610020945f9161064a57501633146113c3565b611508565b513d5f823e3d90fd5b8234610265575f3660031901126102655760035490516001600160a01b039091168152602090f35b503461026557606036600319011261026557610c59611239565b610c6161124f565b825490926001600160a01b039290918316330361102b57821692845191633a98ef3960e01b835260209384848381895afa938415611021575f94610ff2575b5080805f5416938689518094819363371e21e960e01b83521696878783015260249586915afa908115610fe8575f91610fbb575b5085151580610fb2575b15610f3e5785610cf3610cf892604435611345565b61136c565b926064610d0760025486611345565b049589519363d3301da560e01b8552888584818d5afa948515610f34575f95610f05575b505f5b858110610d9357507f80531474d393ce4cf1f6eff52666de82a1d793bd3644571afcd02e839460cdc860808b8b8b8f8c610d68838e61138a565b93815f5260058152825f20610d7e868254611397565b905582519586528501528301526060820152a1005b8b8b81518c8186816328bc078d60e01b95868252888c8301525afa928315610c0e578e918e5f95610ee6575b9050896001541693878351809581938252898d8301525afa918215610edc578e928a9288925f92610ebd575b505194859384926394f649dd60e01b8452168b8301525afa8015610eb3578b905f90610e82575b610e1c9250611345565b670de0b6b3a76400009081810290808204831490151715610e70578e600194938f938f90610e4d8a610e689661136c565b04945f52600681528a835f2092165f52525f20918254611397565b905501610d2e565b84601188634e487b7160e01b5f52525ffd5b50508b81813d8311610eac575b610e9981836112d0565b81010312610265578a610e1c9151610e12565b503d610e8f565b8e513d5f823e3d90fd5b610ed5919250853d87116102545761024681836112d0565b905f610deb565b50513d5f823e3d90fd5b610efd929550803d106102545761024681836112d0565b925f8e610dbf565b9094508881813d8311610f2d575b610f1d81836112d0565b810103126102655751935f610d2b565b503d610f13565b8b513d5f823e3d90fd5b885162461bcd60e51b81528085018890526043818501527f5265776172644d616e61676572207061794665653a206f6e65206f6620746f7460448201527f616c53686172657320616e64206f70657261746f72536861726573206973207a60648201526265726f60e81b608482015260a490fd5b50801515610cde565b90508681813d8311610fe1575b610fd281836112d0565b8101031261026557515f610cd4565b503d610fc8565b89513d5f823e3d90fd5b9093508481813d831161101a575b61100a81836112d0565b810103126102655751925f610ca0565b503d611000565b87513d5f823e3d90fd5b845162461bcd60e51b8152602081840152603960248201527f5265776172644d616e616765722e6f6e6c792070617920666565206d616e616760448201527f65722063616e2063616c6c20746869732066756e6374696f6e000000000000006064820152608490fd5b509034610265575f36600319011261026557905490516001600160a01b039091168152602090f35b8383346102655760209283600319360112610265576001600160a01b036110e1611239565b16805f5260068552835f20335f528552835f20549182156111d257505f80837f225586d654a262de7f45c07692f8b60b054903c50fa0268ef5ce14d20a0e545760608396956111338597471015611265565b80855260068b528985203386528b5261114f848b87205461138a565b81865260068c528a86203387528c528a8620558951903382528b820152838a820152a1335af161117d611306565b501561118b57505160018152f35b82608492519162461bcd60e51b8352820152603060248201525f8051602061167683398151915260448201526f190e881d1c985b9cd9995c8819985a5b60821b6064820152fd5b62461bcd60e51b8152838101869052604a60248201525f8051602061167683398151915260448201527f643a207374616b6520686f6c64657220616d6f756e74206e656564206d6f7265606482015269207468656e207a65726f60b01b608482015260a490fd5b600435906001600160a01b038216820361026557565b602435906001600160a01b038216820361026557565b1561126c57565b60a460405162461bcd60e51b815260206004820152604460248201525f8051602061167683398151915260448201527f643a2052657761726420546f6b656e2062616c616e636520696e7375666669636064820152631a595b9d60e21b6084820152fd5b90601f8019910116810190811067ffffffffffffffff8211176112f257604052565b634e487b7160e01b5f52604160045260245ffd5b3d15611340573d9067ffffffffffffffff82116112f25760405191611335601f8201601f1916602001846112d0565b82523d5f602084013e565b606090565b8181029291811591840414171561135857565b634e487b7160e01b5f52601160045260245ffd5b8115611376570490565b634e487b7160e01b5f52601260045260245ffd5b9190820391821161135857565b9190820180921161135857565b9081602091031261026557516001600160a01b03811681036102655790565b156113ca57565b60405162461bcd60e51b815260206004820152602a60248201527f6d73672e73656e646572206973206e6f74207065726d697373696f6e6564206160448201526939903ab73830bab9b2b960b11b6064820152608490fd5b90816020910312610265575180151581036102655790565b1561144157565b60405162461bcd60e51b815260206004820152602860248201527f6d73672e73656e646572206973206e6f74207065726d697373696f6e6564206160448201526739903830bab9b2b960c11b6064820152608490fd5b6001600160a01b039081169081156114f0575f8051602061165683398151915280546001600160a01b031981168417909155167f8be0079c531659141344cd1fd0a4f28419497f9722a3daafe3b4186f6b6457e05f80a3565b604051631e4fbdf760e01b81525f6004820152602490fd5b6001600160a01b0390811690811561155f577f6e9fcd539896fca60e8b0f01dd580233e48a6b0f7df013b89ba7f565869acdb66040606b549281519084168152846020820152a16001600160a01b03191617606b55565b60405162461bcd60e51b815260206004820152604960248201527f5061757361626c652e5f73657450617573657252656769737472793a206e657760448201527f50617573657252656769737472792063616e6e6f7420626520746865207a65726064820152686f206164647265737360b81b608482015260a490fd5b5f80516020611656833981519152546001600160a01b031633036115fc57565b60405163118cdaa760e01b8152336004820152602490fd5b60ff7ff0c57e16840df040f15088dc2f81fe391c3923bec73e23a9662efc9c229c6a005460401c161561164357565b604051631afcd79f60e31b8152600490fdfe9016d09d72d40fdae2fd8ceac6b6234c7706214fd39c1cd1e609a0528c1993005265776172644d616e61676572206f70657261746f72436c61696d5265776172a264697066735822122064f129a99a4631142f64ef0d983d9d7484eef9d924a5985015a588c4c6c409ee64736f6c63430008180033","linkReferences":{}},"methodIdentifiers":{"SCALE()":"eced5526","delegationManager()":"ea4d3c9b","fdChainDepositManager()":"1fa67d1f","getStakeHolderAmount(address)":"a46457df","initialize(address,address,address,uint256,address,address,address)":"e344b1d6","operatorClaimReward()":"2cb08272","operatorRewards(address)":"41a2b8d6","owner()":"8da5cb5b","pause(uint256)":"136439dd","pauseAll()":"595c6a67","paused()":"5c975abb","paused(uint8)":"5ac86ab7","pauserRegistry()":"886f1195","payFee(address,address,uint256)":"0adfcd81","payFeeManager()":"057e3f24","renounceOwnership()":"715018a6","rewardManager()":"0f4ef8a6","setPauserRegistry(address)":"10d67a2f","stakeHolderClaimReward(address)":"0058091d","stakePercent()":"34a6cdc5","transferOwnership(address)":"f2fde38b","unpause(uint256)":"fabc1cbc","unpauseAll()":"8a2ddd03","updateStakePercent(uint256)":"86d48fb5"},"id":61}