{"abi":[{"type":"fallback","stateMutability":"payable"},{"type":"receive","stateMutability":"payable"},{"type":"function","name":"allowance","inputs":[{"name":"owner","type":"address","internalType":"address"},{"name":"spender","type":"address","internalType":"address"}],"outputs":[{"name":"","type":"uint256","internalType":"uint256"}],"stateMutability":"view"},{"type":"function","name":"approve","inputs":[{"name":"guy","type":"address","internalType":"address"},{"name":"wad","type":"uint256","internalType":"uint256"}],"outputs":[{"name":"","type":"bool","internalType":"bool"}],"stateMutability":"nonpayable"},{"type":"function","name":"balanceOf","inputs":[{"name":"src","type":"address","internalType":"address"}],"outputs":[{"name":"","type":"uint256","internalType":"uint256"}],"stateMutability":"view"},{"type":"function","name":"decimals","inputs":[],"outputs":[{"name":"","type":"uint8","internalType":"uint8"}],"stateMutability":"view"},{"type":"function","name":"deposit","inputs":[],"outputs":[],"stateMutability":"payable"},{"type":"function","name":"name","inputs":[],"outputs":[{"name":"name_","type":"string","internalType":"string"}],"stateMutability":"pure"},{"type":"function","name":"symbol","inputs":[],"outputs":[{"name":"symbol_","type":"string","internalType":"string"}],"stateMutability":"pure"},{"type":"function","name":"totalSupply","inputs":[],"outputs":[{"name":"","type":"uint256","internalType":"uint256"}],"stateMutability":"view"},{"type":"function","name":"transfer","inputs":[{"name":"dst","type":"address","internalType":"address"},{"name":"wad","type":"uint256","internalType":"uint256"}],"outputs":[{"name":"","type":"bool","internalType":"bool"}],"stateMutability":"nonpayable"},{"type":"function","name":"transferFrom","inputs":[{"name":"src","type":"address","internalType":"address"},{"name":"dst","type":"address","internalType":"address"},{"name":"wad","type":"uint256","internalType":"uint256"}],"outputs":[{"name":"","type":"bool","internalType":"bool"}],"stateMutability":"nonpayable"},{"type":"function","name":"version","inputs":[],"outputs":[{"name":"","type":"string","internalType":"string"}],"stateMutability":"view"},{"type":"function","name":"withdraw","inputs":[{"name":"wad","type":"uint256","internalType":"uint256"}],"outputs":[],"stateMutability":"nonpayable"},{"type":"event","name":"Approval","inputs":[{"name":"src","type":"address","indexed":true,"internalType":"address"},{"name":"guy","type":"address","indexed":true,"internalType":"address"},{"name":"wad","type":"uint256","indexed":false,"internalType":"uint256"}],"anonymous":false},{"type":"event","name":"Deposit","inputs":[{"name":"dst","type":"address","indexed":true,"internalType":"address"},{"name":"wad","type":"uint256","indexed":false,"internalType":"uint256"}],"anonymous":false},{"type":"event","name":"Transfer","inputs":[{"name":"src","type":"address","indexed":true,"internalType":"address"},{"name":"dst","type":"address","indexed":true,"internalType":"address"},{"name":"wad","type":"uint256","indexed":false,"internalType":"uint256"}],"anonymous":false},{"type":"event","name":"Withdrawal","inputs":[{"name":"src","type":"address","indexed":true,"internalType":"address"},{"name":"wad","type":"uint256","indexed":false,"internalType":"uint256"}],"anonymous":false}],"bytecode":{"object":"0x60808060405234610016576105d8908161001b8239f35b5f80fdfe6080604090808252600436101561002b575b505036156100235761002161055c565b005b61002161055c565b5f3560e01c90816306fdde031461035a57508063095ea7b3146102ec57806318160ddd146102d257806323b872dd146102a15780632e1a7d4d14610217578063313ce567146101fc57806354fd4d50146101c057806370a082311461018a57806395d89b411461014c578063a9059cbb1461011a578063d0e30db0146101075763dd62ed3e146100bb5780610011565b346101035780600319360112610103576020906100d66103dd565b6100de6103f3565b9060018060a01b038091165f5260018452825f2091165f528252805f20549051908152f35b5f80fd5b5f3660031901126101035761002161055c565b50346101035780600319360112610103576020906101436101396103dd565b6024359033610467565b90519015158152f35b5034610103575f366003190112610103578051622ba22760e91b6020820152600381526101869161017c82610409565b5191829182610396565b0390f35b5034610103576020366003190112610103576020906001600160a01b036101af6103dd565b165f525f8252805f20549051908152f35b5034610103575f366003190112610103578051610186916101e082610409565b6005825264302e302e3160d81b60208301525191829182610396565b5034610103575f366003190112610103576020905160128152f35b50346101035760203660031901126101035760043590335f525f602052805f208054838110610103578361024a91610439565b9055815f8115610298575b5f80809381933390f11561028f57519081527f7fcf532c15f0a6db0bd6d0e038bea71d30d808c7d98cb3bf7268a95bf5081b6560203392a2005b513d5f823e3d90fd5b506108fc610255565b5034610103576060366003190112610103576020906101436102c16103dd565b6102c96103f3565b60443591610467565b5034610103575f3660031901126101035751478152602090f35b50346101035780600319360112610103576020906103086103dd565b602435335f5260018452825f209160018060a01b031691825f52845280835f205582519081527f8c5be1e5ebec7d5bd14f71427d1e84f3dd0314c0f7b2291e5b200ac8c7c3b925843392a35160018152f35b905034610103575f366003190112610103576101869161037982610409565b600a8252692bb930b83832b210222760b11b602083015251918291825b602080825282518183018190529093925f5b8281106103c957505060409293505f838284010152601f8019910116010190565b8181018601518482016040015285016103a8565b600435906001600160a01b038216820361010357565b602435906001600160a01b038216820361010357565b6040810190811067ffffffffffffffff82111761042557604052565b634e487b7160e01b5f52604160045260245ffd5b9190820391821161044657565b634e487b7160e01b5f52601160045260245ffd5b9190820180921161044657565b919060018060a01b0380931691825f526020905f825260409481865f2054106101035760018352855f20335f528352855f20543386141580610551575b610504575b507fddf252ad1be2c89b69c2b068fc378daa952ba7f163c4a11628f55a4df523b3ef93855f525f8452865f206104e0848254610439565b90551694855f525f8352805f206104f883825461045a565b905551908152a3600190565b8211610103577fddf252ad1be2c89b69c2b068fc378daa952ba7f163c4a11628f55a4df523b3ef93855f5260018452865f20335f528452865f20610549848254610439565b9055936104a9565b505f198114156104a4565b335f525f60205260405f2061057234825461045a565b90556040513481527fe1fffcc4923d04b559f4d29a8bfc6cda04eb5b0d3c460751c2402c5c5cc9109c60203392a256fea26469706673582212200ac56d310335b5772e5531e77468390736eb1e3b6342a01541ce7fce1e7ee66e64736f6c63430008180033","linkReferences":{}},"methodIdentifiers":{"allowance(address,address)":"dd62ed3e","approve(address,uint256)":"095ea7b3","balanceOf(address)":"70a08231","decimals()":"313ce567","deposit()":"d0e30db0","name()":"06fdde03","symbol()":"95d89b41","totalSupply()":"18160ddd","transfer(address,uint256)":"a9059cbb","transferFrom(address,address,uint256)":"23b872dd","version()":"54fd4d50","withdraw(uint256)":"2e1a7d4d"},"id":65}